:020000040800F2
:1000000060060020190200082102000823020008EF
:10001000250200082702000829020008000000004D
:100020000000000000000000000000002B0200089B
:100030002D020008000000002F0200083102000815
:1000400033020008330200083302000833020008BC
:1000500033020008330200083302000833020008AC
:10006000330200083302000833020008330200089C
:10007000330200083302000833020008330200088C
:1000800033020008330200083302000800000000B9
:100090000000000000000000000000003302000823
:1000A000330200083302000833020008330200085C
:1000B000330200083302000833020008330200084C
:1000C000330200083302000833020008330200083C
:1000D0003302000833020008330200080000000069
:1000E0003302000833020008330200080000000059
:1000F00000000000000000000000000033020008C3
:100100000000000033020008330200083302000838
:1001100000000000000000000000000000000000DF
:1001200033020008330200083302000833020008DB
:100130003302000800000000000000000000000082
:100140000000000000000000000000003302000872
:1001500033020008330200083302000833020008AB
:100160003302000833020008000000000000000015
:10017000000000000000000000000000000000007F
:100180000000000033020008000000000000000032
:100190003302000800F002F800F02EF80AA090E800
:1001A000000C82448344AAF10107DA4501D100F032
:1001B00023F8AFF2090EBAE80F0013F0010F18BFD1
:1001C000FB1A43F0010318473C0300004C030000F6
:1001D0000023002400250026103A28BF78C1FBD850
:1001E000520728BF30C148BF0B6070471FB500F0F1
:1001F0007CF91FBD10B510BD00F031F81146FFF7B6
:10020000F5FF00F017F900F04FF803B4FFF7F2FF25
:1002100003BC00F057F80000094880470948004730
:10022000FEE7FEE7FEE7FEE7FEE7FEE7FEE7FEE7A6
:10023000FEE7FEE704480549054A064B7047000003
:10024000B10300089501000860000020600600204E
:1002500060020020600200207047704770477546BA
:1002600000F02CF8AE4605006946534620F0070022
:10027000854618B020B5FFF7DDFFBDE820404FF000
:1002800000064FF000074FF000084FF0000BAC469F
:10029000ACE8C009ACE8C009ACE8C009ACE8C009EA
:1002A00021F007018D46704710B50446AFF300807A
:1002B0002046BDE81040FFF7A8BF00000048704787
:1002C0000000002001491820ABBEFEE72600020016
:1002D0007047000040F21441C4F202010A684FF472
:1002E0007F0322F040020A600A6822F020020A60BE
:1002F00040F61802C4F202021360C1F80004086854
:1003000040F080000860086820F0800008607047B6
:1003100040F21441C4F202010A684FF47F0342F034
:1003200020020A600A6822F040020A6040F61802C1
:10033000C4F202021360C1F80004086840F08000B3
:100340000860086820F080000860704780B500F001
:1003500019F83020FFF7BEFF3020FFF7BBFF302039
:10036000FFF7B8FF3020FFF7B5FF3820FFF7B2FFE7
:100370000620FFF7AFFF0120FFF7ACFF0F20FFF7CC
:10038000A9FF80BD40F20040C4F20200016841F4C0
:10039000AA41016043F63001C4F202010A6842F04A
:1003A00004020A604FF05531C0F800147047000095
:1003B0004EF68850CEF20000016841F470010160F1
:1003C0004FF0006140F8801C7047000010B544F207
:1003D0000040C4F2000000BF01688906FCD54068F7
:1003E000C4B22046FFF794FF204610BD40F21040F3
:1003F000C4F2020050F8101C41F0AA4140F8101C51
:100400004FF4604141600168016801684FF4504158
:1004100041600168016801684FF430414160016842
:10042000016801684FF4E0414160016801680068BB
:100430007047000000F01AF8FFF7D8FFFFF786FFBB
:10044000632000F003F8FFF7C1FFF9E744F2004131
:10045000C4F20001486000BF08684006FCD51420C3
:10046000C4F20200002101607047000043F6300032
:10047000C4F20200016841F25F2241F00101016013
:10048000016841F002010160416941F010014161E0
:100490000020C4F20200016841F00101016001681E
:1004A00041F020010160016841F080010160016AB2
:1004B00041F4E0610162016A41F4E041016244F209
:1004C0000C40C4F2000000210160016841F40051B9
:1004D00001600168016050F8041C114340F8041CDD
:1004E000016841F00C0101607047F1EE100A4FF60F
:1004F000FF71C0F2C03120EA010040F04070E1EE2F
:10050000100A704714050008000000206006000073
:04051000D00100080E
:040000050800019559
:00000001FF
