:020000040800F2
:1000000068060020190200082102000823020008E7
:10001000250200082702000829020008000000004D
:100020000000000000000000000000002B0200089B
:100030002D020008000000002F0200083102000815
:1000400033020008330200083302000833020008BC
:1000500033020008330200083302000833020008AC
:10006000330200083302000833020008330200089C
:10007000330200083302000833020008330200088C
:1000800033020008330200083302000800000000B9
:100090000000000000000000000000003302000823
:1000A000330200083302000833020008330200085C
:1000B000330200083302000833020008330200084C
:1000C000330200083302000833020008330200083C
:1000D0003302000833020008330200080000000069
:1000E0003302000833020008330200080000000059
:1000F00000000000000000000000000033020008C3
:100100000000000033020008330200083302000838
:1001100000000000000000000000000000000000DF
:1001200033020008330200083302000833020008DB
:100130003302000800000000000000000000000082
:100140000000000000000000000000003302000872
:1001500033020008330200083302000833020008AB
:100160003302000833020008000000000000000015
:10017000000000000000000000000000000000007F
:100180000000000033020008000000000000000032
:100190003302000800F002F800F02EF80AA090E800
:1001A000000C82448344AAF10107DA4501D100F032
:1001B00023F8AFF2090EBAE80F0013F0010F18BFD1
:1001C000FB1A43F001031847E8050000F80500009A
:1001D0000023002400250026103A28BF78C1FBD850
:1001E000520728BF30C148BF0B6070471FB500F0F1
:1001F000D2FA1FBD10B510BD00F031F81146FFF75F
:10020000F5FF00F053FA00F04FF803B4FFF7F2FFE8
:1002100003BC00F057F80000094880470948004730
:10022000FEE7FEE7FEE7FEE7FEE7FEE7FEE7FEE7A6
:10023000FEE7FEE704480549054A064B7047000003
:10024000E10300089501000868000020680600200E
:1002500068020020680200207047704770477546AA
:1002600000F02CF8AE4605006946534620F0070022
:10027000854618B020B5FFF7DDFFBDE820404FF000
:1002800000064FF000074FF000084FF0000BAC469F
:10029000ACE8C009ACE8C009ACE8C009ACE8C009EA
:1002A00021F007018D46704710B50446AFF300807A
:1002B0002046BDE81040FFF7A8BF00000048704787
:1002C0000000002001491820ABBEFEE72600020016
:1002D00070470000B0B5002808BFB0BD0446002537
:1002E0004FF47A7000F004F80135A542F8D3B0BDA0
:1002F0002421C4F2000100220A6000BF0A68824281
:10030000FCD3704740F21441C4F202010A684FF472
:100310007F0322F040020A600A6822F020020A608D
:1003200040F61802C4F202021360C1F80004086823
:1003300040F080000860086820F080000860704786
:1003400040F21441C4F202010A684FF47F0342F004
:1003500020020A600A6822F040020A6040F6180291
:10036000C4F202021360C1F80004086840F0800083
:100370000860086820F080000860704780B500F0D1
:1003800019F83020FFF7BEFF3020FFF7BBFF302009
:10039000FFF7B8FF3020FFF7B5FF3820FFF7B2FFB7
:1003A0000620FFF7AFFF0120FFF7ACFF0F20FFF79C
:1003B000A9FF80BD40F20040C4F20200016841F490
:1003C000AA41016043F63001C4F202010A6842F01A
:1003D00004020A604FF05531C0F800147047000065
:1003E0004EF68850CEF20000016841F470010160C1
:1003F0004FF0006140F8801C7047000043F6400158
:10040000C4F202010A68102042F00102C4F20000A6
:100410000A600F2181614FF6FF71C1614FF0804189
:100420000A6842F001020A600168C907FCD07047FF
:1004300080B544F200401021C4F20000C4F2020171
:10044000026892060DD40A68D205F9D4402000F063
:100450005DF940F26000C2F200000021016000F08E
:1004600025F94068C0B280BD2DE9F04F85B040F25B
:1004700010440026C4F20204CDE90366CDE901660A
:1004800054F8100C40F2600A40F0AA4044F8100CF6
:10049000C2F2000ADAF8000040F214474FF6004BAF
:1004A000C4F20207CFF6FF7B4FF4604801AD4FF472
:1004B000E049012804BF0496032606E06420FFF704
:1004C00009FF0136042E80F2E58054F80B00C005C8
:1004D00040F1E380C7F800802068C0050AD43120CD
:1004E00000F014F955F82600013045F82600962052
:1004F000FFF7F0FE206880050AD4322000F006F9EC
:1005000055F82600013045F826009620FFF7E2FE58
:10051000206840050AD4332000F0F8F855F826008A
:10052000013045F826009620FFF7D4FE4FF45040E6
:1005300038602068C0050AD4342000F0E7F855F888
:100540002600013045F826009620FFF7C3FE2068FC
:1005500080050AD4352000F0D9F855F8260001307E
:1005600045F826009620FFF7B5FE206840050AD41E
:10057000362000F0CBF855F82600013045F826006B
:100580009620FFF7A7FE4FF4304038602068C00582
:100590000AD4372000F0BAF855F82600013045F8A3
:1005A00026009620FFF796FE206880050AD43820A2
:1005B00000F0ACF855F82600013045F826009620EA
:1005C000FFF788FE206840050AD4392000F09EF825
:1005D00055F82600013045F826009620FFF77AFEF0
:1005E000C7F800902068C0052AD42A2000F08EF8B1
:1005F000DAF8000020BB0021002EC8BF711E55F89C
:100600002100D846D3460E4690B1A0F1010A00BFA2
:100610001020FFF777FE2020FFF792FE1020FFF753
:1006200071FE45F826A0AAF1010A1AF10100EFD1E6
:100630009620FFF74FFEDA46C3464FF4604800BFEE
:10064000206880050AD4302000F060F855F82600B4
:10065000013045F826009620FFF73CFE2068400553
:100660003FF530AF55F8260000283FF42BAF23208C
:1006700000F04CF8DAF80000012806D10120FFF75D
:1006800041FE02E0C0B2FFF75BFEFFF7D1FE71282A
:10069000F8D113E705B0BDE8F08F402000F036F840
:1006A0000020CAF8000000F001F800001024C4F295
:1006B0000204FFF7A3FE00F037F8FFF75FFEFFF735
:1006C000D3FE01200125FFF71DFE2068C0050AD4D6
:1006D000402000F01BF840F26000C2F20000002150
:1006E0000160FFF7E3FF40F26006C2F2000605E09A
:1006F0003560FFF7B9FE2068C005E9D5FFF798FE21
:100700007128F5D0FFF71CFEF5E7000044F2004128
:10071000C4F200010A6812F0900FFBD0486000BFDD
:1007200008684006FCD5704743F63000C4F202006A
:10073000016840F2836241F001010160016841F00B
:1007400002010160016941F4003101610020C4F23D
:100750000200016A21F47F410162016A41F4EE4125
:100760000162016821F0FF010160016841F0A00110
:10077000016044F20C40C4F2000050F8041C114324
:1007800040F8041C016841F00C010160016841F46B
:10079000005101607047F1EE100A4FF6FF71C0F290
:1007A000C03120EA010040F04070E1EE100A7047CD
:1007B000C00700080000002068060000D001000803
:040000050800019559
:00000001FF
