:020000040800F2
:1000000060060020190200082102000823020008EF
:10001000250200082702000829020008000000004D
:100020000000000000000000000000002B0200089B
:100030002D020008000000002F0200083102000815
:1000400033020008330200083302000833020008BC
:1000500033020008330200083302000833020008AC
:10006000330200083302000833020008330200089C
:10007000330200083302000833020008330200088C
:1000800033020008330200083302000800000000B9
:100090000000000000000000000000003302000823
:1000A000330200083302000833020008330200085C
:1000B000330200083302000833020008330200084C
:1000C000330200083302000833020008330200083C
:1000D0003302000833020008330200080000000069
:1000E0003302000833020008330200080000000059
:1000F00000000000000000000000000033020008C3
:100100000000000033020008330200083302000838
:1001100000000000000000000000000000000000DF
:1001200033020008330200083302000833020008DB
:100130003302000800000000000000000000000082
:100140000000000000000000000000003302000872
:1001500033020008330200083302000833020008AB
:100160003302000833020008000000000000000015
:10017000000000000000000000000000000000007F
:100180000000000033020008000000000000000032
:100190003302000800F002F800F02EF80AA090E800
:1001A000000C82448344AAF10107DA4501D100F032
:1001B00023F8AFF2090EBAE80F0013F0010F18BFD1
:1001C000FB1A43F001031847A0200000B0200000F4
:1001D0000023002400250026103A28BF78C1FBD850
:1001E000520728BF30C148BF0B6070471FB501F0F0
:1001F0006DFF1FBD10B510BD00F044F81146FFF7AC
:10020000F5FF00F0CDF800F062F803B4FFF7F2FF5D
:1002100003BC00F065F80000094880470948004722
:10022000FEE7FEE7FEE7FEE7FEE7FEE7FEE7FEE7A6
:10023000FEE7FEE704480549054A064B7047000003
:100240003D030008950100086000002060060020C2
:10025000600200206002002070477047704710B5B0
:1002600000F008F8006810BD10B5044600F002F870
:10027000046010BD0048704700000020004870472F
:10028000000000207546FFF7F9FFAE4605006946FD
:10029000534620F00700854618B020B5FFF7CAFF87
:1002A000BDE820404FF000064FF000074FF0000877
:1002B0004FF0000BAC46ACE8C009ACE8C009ACE8B4
:1002C000C009ACE8C00921F007018D46704710B5A0
:1002D0000446AFF300802046BDE81040FFF795BF0D
:1002E00001491820ABBEFEE726000200704700005F
:1002F000B0B5002808BFB0BD044600254FF47A70A1
:1003000000F004F80135A542F8D3B0BD2421C4F2B1
:10031000000100220A6000BF0A688242FCD37047D5
:1003200010B51824C4F20204202020606420FFF7D6
:10033000DFFF4FF40010206010BD00004EF6885023
:10034000CEF20000016841F4700101604FF00061DD
:1003500040F8801C7047000043F64001C4F20201DF
:100360000A68102042F00102C4F200000A600F2166
:1003700081614FF6FF71C1614FF080410A6842F020
:1003800001020A600168C907FCD0704744F20040CE
:10039000C4F2000001688906FCD54068C0B270470D
:1003A00082B000F053F9FFF7D7FF44F24550ADF8A3
:1003B00004004FF045300090FFF7E8FFFFF7E6FF3D
:1003C000402801D1FFF7ECFF04464FF0000B6F46C9
:1003D0004FF0000800254FF0000900264FF0000AFA
:1003E00029E000BF6FF02F0006EB8601B8F1000F87
:1003F00050FA84F008BF00EB410609EB8901B8F11F
:10040000010F08BF00EB410905EB8501B8F1020FB0
:1004100008BF00EB41050BEB8B01B8F1030F08BFE0
:1004200000EB410B07F80A400AF1010AFFF7AEFFA3
:1004300004464028C6D0FFF773FFE0B22A281BD03D
:100440002328CFD1002400BF385D452804D000F018
:10045000EFF80134062CF7D1712008F1010800F003
:10046000E7F8B8F1040F2FD044F24550ADF804007E
:100470004FF04530009024E0B8F1030008BF8346F8
:1004800044F24550ADF80400B8F1000F4FF045308C
:10049000009002DDA8F1010807E000264FF00009F6
:1004A00000254FF000084FF0000BB8F1000F08BF17
:1004B0004646B8F1010008BF8146B8F1020008BF06
:1004C00005464FF0000AB1E706EB490005EB450190
:1004D000471807FB0BF546F26766C6F266664FF0F3
:1004E00000045DB1284600BF50FB06F18A100930B8
:1004F00002EBD171013412280846F5D84FF49670FA
:10050000FFF7F6FE1CB9302000F092F823E09FEDD3
:10051000468B013C204601F08CFA41EC110BB0EE09
:10052000480AF0EE680A00F0EFF851EC100B01F009
:1005300051FA95FBF0F050FB06F18A0802EBD171FD
:1005400001EB8101A0EB41003030C0B200F070F847
:10055000013C601CDED1712000F06AF8FFF716FF45
:1005600040283FF42FAF9FED308B0446002512E06A
:10057000302000F05DF8712000F05AF86420FFF799
:10058000B7FE712000F054F80025FFF7FFFE044687
:1005900040283FF417AFFFF7C3FEE0B2232809D08D
:1005A0002A28F1D005EB8500400050FA84F0A0F134
:1005B0003005EAE77D43002455B1284650FB06F19B
:1005C0008A10093002EBD171013412280846F5D89F
:1005D0004FF49670FFF78CFE002CC9D0013C00BF91
:1005E000204601F026FA41EC110BB0EE480AF0EE7D
:1005F000680A00F089F851EC100B01F0EBF995FB5B
:10060000F0F050FB06F18A0802EBD17101EB810199
:10061000A0EB41003030C0B200F00AF8013C601C91
:10062000DED1A8E700BF00BF0000000000002440AA
:1006300044F20041C4F200010A6812F0900FFBD0AE
:10064000486000BF08684006FCD5704743F630009C
:10065000C4F2020001684FF0000C41F0010101609A
:10066000016840F2836241F002010160016941F4D6
:10067000003101610020C4F20200016841F4806190
:1006800001604FF400118161016A21F47F41016230
:10069000016A41F4EE410162016821F0F00101605C
:1006A000016841F0A001016044F20C41C4F2000174
:1006B000C1F800C051F8043C1A4341F8042C0A6800
:1006C00042F00C020A600A6842F400520A60C0F864
:1006D00014C0704703B401984100009850EAC1204B
:1006E00018BF04204A0D18BF40F0010040F2FF720D
:1006F000B2EB515F08BF40F00200012808BF05209F
:1007000002B07047000000002DE9F04D2DED040B04
:100710002DED0E8B94B0DDE92350259CDDF888A0EB
:1007200025F0004624F00048BAF1000F14BF012163
:10073000002101EB4502FC4953184A1093422AD389
:10074000002814BF0123002303EB44030B44F749A3
:100750008B4220D358EA00019FEDF5AB76D0DFF84D
:10076000D8B35D4503D1BAF1000F05D188E0BAF1E5
:10077000000F08BF002100D0012101EB450111F558
:10078000001F08D8002814BF0121002101EB4401FB
:1007900011F5001F0BD99DED241B9DED220B14B00C
:1007A000BDEC0E8B04B0BDE8F04D00F071BE00272B
:1007B000002DBCBFE149884521DAE1498845A8BF41
:1007C00002271CDAC3451ADCDE4901EB2851142943
:1007D00008DDC1F1340220FA02F101FA02F282428C
:1007E0000DD108E058B9C1F1140228FA02F101FA5A
:1007F00002F2424503D101F00101C1F1020756EABC
:100800000A0124D1002C22DA002D18BF022F01D0BA
:10081000012F0AD00220FFF727FD14B0BDEC0E8B8C
:1008200004B0BDE8F04D00F01BBE0220FFF71CFD38
:1008300000F016FE51EC100B00F0A9FE41EC100B7D
:1008400014B0BDEC0E8B04B0BDE8F08D18E09FED48
:10085000BE9B9FEDBF8B002871D1B848804522D147
:1008600005F1804010F5801008BFBAF1000F07D0E5
:10087000B3450ADC002CA8BF9DED240BE0DA0DE0A7
:10088000B0EE4A0AF0EE6A0ADAE7002C06DA9DEDCD
:10089000240B51EC100B00F07AFE6FE0AE48784468
:1008A00090ED000BCCE7D8454DD1002C48DA2EB1A5
:1008B00086423AD1BAF1000F42D126E0BAF1000FD8
:1008C00013D00220FFF7D0FC00F0FEFD8DED020BEF
:1008D0009DED220B8DED000B10EE900A039961F354
:1008E0001E0003909DED020BAAE78DED029B9DED8E
:1008F000220B19EE901A10EE900A8DED000B61F3A9
:100900001E0003909DED020B9AE78DED028B9DED8D
:10091000220B18EE901A10EE900A8DED000B61F389
:100920001E0003909DED020B8AE709DA9DED220B74
:1009300051EC1A0B53EC102B00F0F2FE1EE020E0FD
:100940009DED220B7CE786421BDAB4F1804F0DD07F
:10095000A4F10050B0F1FF5013D1002D11DB9DED3B
:10096000220B51EC100B00F0DBFD07E09DED220B9C
:1009700053EC102B51EC100B00F0CABC41EC100BE7
:100980005EE79DED220B51EC100B00F0BDFDBAF1BE
:10099000000FCDE90A0142D19FED710B46B3A6F1DC
:1009A000E040B0F17F600CD05E4538D1002D00DA18
:1009B000A7B3022F0CBF01204FF0FF3001F039F830
:1009C000DCE7002D01DD002C0DDA002D01DD002C0F
:1009D0001FDB002D16DA002C14DB012F08BF9FED62
:1009E000620B3FF42DAFB0EE490AF0EE690A27E73B
:1009F000022F18BF002D0CD0012F0AD1002DFFF6B9
:100A00001FAF06E0002DB8BF002C08DA012F3FF41D
:100A100017AFB0EE480AF0EE680A11E71BE00120BC
:100A200000EBE57050EA070115D0791EB0EE4A8A56
:100A3000F0EE6A8A084308BF9FED4D8B4E480025B3
:100A4000804570DD4D494E48884514DDB0420DDBD0
:100A5000002C19DB2FE00120FFF706FC14B0BDECE1
:100A60000E8B04B0BDE8F04D00F01EBDB34502DCB6
:100A7000002C09DC1FE0864202DA002C1BDA03E0BE
:100A80005E452BDD002C16DD0220FFF7EDFB00F0AC
:100A90001BFD8DED020B53EC192B51EC180B01F0E3
:100AA0001BF8CDE900010399019861F31E00039042
:100AB0009DED020BC4E60220FFF7D6FB00F014FD0B
:100AC00010EE901A18EE900A8DED020B8DED008B52
:100AD00061F31E0003909DED020BB1E69DED0A0B44
:100AE00053EC1A2B51EC100B01F002FA9FED260B80
:100AF000CDE90A0153EC102B9DED0A0B51EC100BC4
:100B000000F0EAFF9FED221B53EC112B01F018F9C6
:100B10009DED0A1B53EC112B00F0DEFF9FED1E1B19
:100B200053EC112B3CE08CE0FFFF1F00FFFF0F0098
:100B3000000000000000F03F0000F03F0000F07FE8
:100B40000000404301FCFFFF000000000000F07FB8
:100B50000000000000000000BE19000000000000BE
:100B60000000000000000080000000000000F0FF16
:100B7000000000000000F0BF0000E0410000F04372
:100B8000FFFFEF3F00000000000000000000D03F2A
:100B9000555555555555D53F000000000000E03F24
:100BA00001F0CEF89DED0A0B41EC190B53EC102B24
:100BB00051EC100B00F090FF53EC192B00F08CFF60
:100BC0009DED0A0B41EC1B0B53EC102B9FEDFE0B24
:100BD00051EC100B00F080FF41EC190B9FEDFC0B6A
:100BE00051EC1B0B53EC102B00F076FF41EC1B0B70
:100BF0009FEDF90B53EC102B9DED0A0B51EC100BF4
:100C000000F06AFF53EC1B2B01F072F941EC1B0B57
:100C100051EC190B53EC1B2B00F0C6FC0490CDE9F2
:100C200004519DED040B53EC192B51EC100B01F00A
:100C30005FF953EC1B2B01F083F841EC100B00F033
:100C4000A9B90020B6F5801F0EDA9FEDE50B53EC35
:100C5000102B9DED0A0B51EC100B00F03DFFCDE980
:100C60000A016FF034000E4600EB2650A0F2FF3769
:100C7000C6F31300DC4940F07F6646F040568842D8
:100C8000D8BF002408DDD9498142C8BF012403DC54
:100C90000024A6F580167F1CD548784400EBC408D4
:100CA0000B9698ED000B53EC102B9DED0A0B51ECBD
:100CB000100B01F01DF998ED000B41EC1B0B53ECF0
:100CC000102B9DED0A0B51EC100B00F06DFC41EC6C
:100CD000100B51EC1A0B53EC102B00F021FD41ECE2
:100CE0001C0B51EC1B0B53EC1C2B00F0F5FE41ECE4
:100CF000190BC0488DED0E9B78440E9590ED000BBE
:100D00004FF0005040EA660000EB84408DED120B7E
:100D100000F50020139098ED000B53EC102B9DED87
:100D2000120B51EC100B01F0E3F89DED0A1B53EC94
:100D3000112B01F005F841EC100B53EC102B9DED3D
:100D40000E0B51EC100B00F0C7FE9DED120B41ECA9
:100D50001D0B53EC102B9DED0E0B51EC100B00F006
:100D6000BBFE53EC1B2B00F0EBFF53EC1D2B01F0F3
:100D7000BFF853EC1C2B00F0AFFE41EC1C0B53EC06
:100D8000192B51EC190B00F0A7FE41EC1B0B9A48F4
:100D90000621B0EE4B0AF0EE6B0A784400F0E4FA5C
:100DA000B0EE401AF0EE601AB0EE41DAF0EE61DA21
:100DB00053EC1B2B51EC1B0B00F08EFE53EC1D2B48
:100DC00000F08AFE9DED0E0B41EC1B0B53EC192B32
:100DD00051EC100B00F0E8FB53EC1C2B00F07CFEF8
:100DE00053EC1B2B00F0E0FB9DED0E0B41EC1B0BBD
:100DF00053EC102B51EC100B00F06EFE41EC1D0B70
:100E000053EC1D2B9FED7EEB51EC1E0B00F0CCFB49
:100E100053EC1B2B00F0C8FB1290CDE912519DED55
:100E2000120B53EC1E2B51EC100B01F061F853EC3C
:100E30001D2B01F05DF853EC1B2B00F081FF9DEDA5
:100E4000120B41EC1D0B53EC102B9DED0E0B51ECD6
:100E5000100B00F041FE41EC1B0B53EC192B51EC35
:100E60001D0B00F039FE9DED120B41EC190B53ECFC
:100E7000102B51EC1C0B00F02FFE53EC192B00F043
:100E800093FB41EC190B51EC1B0B53EC192B00F0AD
:100E90008BFB0490CDE904519DED040B53EC1B2B0F
:100EA00051EC100B01F024F853EC192B00F048FF23
:100EB0009DED040B41EC190B53EC102B9FED520BE5
:100EC00051EC100B00F008FE41EC1B0B9FED500B9A
:100ED00051EC190B53EC102B00F0FEFD9DED040BB3
:100EE00041EC190B53EC102B9FED4B0B51EC100BFD
:100EF00000F0F2FD53EC192B00F056FB41EC100B07
:100F00004748784400EBC40090ED001B51EC100BF7
:100F100053EC112B00F048FB41EC190B384600F064
:100F200088FDCDE90A0153EC192B51EC1B0B00F0A5
:100F30003BFB41EC100B3B48784400EBC40451EC04
:100F4000100B94ED001B53EC112B00F02DFB9DEDCD
:100F50000A1B53EC112B00F027FB0490CDE9045140
:100F60009DED0A0B53EC102B9DED040B51EC100B77
:100F700000F0BEFF94ED001B53EC112B00F0B8FF06
:100F800053EC1B2B00F0B4FF53EC192B00F0D8FEF0
:100F900041EC100B9DED241B53EC102B8DED001B31
:100FA00000959DED240B51EC100B00F095FD9DED8F
:100FB000000B41EC190B53EC102B9DED240B51EC65
:100FC000100B00F095FF2FE0000000604715F73F81
:100FD000FE822B654715F73F44DF5DF80BAE543EAC
:100FE00000000000000040438E9803007AB60B001A
:100FF0003A150000641500006A14000000000000AB
:101000000000000000000840000000E009C7EE3FBB
:10101000FD033ADC09C7EE3FF5015B14E02F3EBE4D
:10102000F2120000AC1200009DED041B53EC112BDA
:1010300000F052FD53EC192B00F0B6FA9DED040BB5
:1010400041EC190B53EC102B9DED000B51EC100BE8
:1010500000F042FDCDE904019DED040B51EC190BAC
:1010600053EC102B00F0A0FACDE902010C46AA497E
:101070008C422FDB611A084318D19DED040B53EC11
:10108000102B9DED020B51EC100B00F031FF41ECE9
:101090001B0B9FEDA30B51EC190B53EC102B00F025
:1010A00083FA53EC1B2B00F015FE2DD20220FFF724
:1010B000DBF800F009FA10EE901A18EE900A8DEDA8
:1010C000020B8DED008B61F31E0003909DED020B72
:1010D000FFF7B6BB944A24F00041914214D39349E0
:1010E000214408437FF4E7AC9DED040B53EC102B37
:1010F0009DED020B51EC100B00F0FAFE53EC192B96
:1011000000F0E8FD7FF6D7AC24F000408849894A1A
:10111000002601EB205182422BDA481C4FF480114B
:1011200021FA00F02044844AC0F30A517A44A1F223
:10113000FF3192ED000B814A8DED0A0BCA4020EA87
:101140000202C0F3130040F48010C1F1140120FA30
:1011500001F60B92002CB8BF76429DED0A0B53ECC2
:10116000102B9DED040B51EC100B00F0C1FECDE9EE
:1011700004019DED040B51EC190B53EC102B00F006
:1011800013FA9FED6F0B0A90CDE90A5153EC102B27
:101190009DED0A0B51EC100B00F09EFC41EC1B0B7B
:1011A0009FED690B53EC102B9DED0A0B51EC100BCE
:1011B00000F092FC9DED040B41EC1C0B53EC102B4A
:1011C0009DED0A0B51EC100B00F092FE53EC192B25
:1011D00000F0B6FD9FED5E1B53EC112B00F07CFC84
:1011E00053EC1C2B00F0E0F941EC190B51EC1B0BFC
:1011F00053EC192B00F0D8F9CDE902019DED020B5B
:1012000053EC1B2B51EC100B00F072FE53EC192B1E
:1012100000F096FD9DED020B41EC190B53EC102BE9
:1012200051EC100B00F058FCCDE90A014A489DED45
:101230000A0B0521784400F097F89DED0A1B51EC4C
:10124000100B53EC112B00F047FC9DED021B53ECEF
:10125000112B00F075FDCDE904019DED020B53EC5F
:10126000192B51EC100B00F037FC53EC192B00F04C
:101270009BF99FED3B0B41EC190B53EC102B9DEDB3
:10128000040B51EC100B00F033FE9DED040B41EC10
:101290001B0B53EC102B9DED020B51EC100B00F0CF
:1012A0001BFC53EC1B2B00F03BFA53EC192B00F00A
:1012B0001FFE9DED021B53EC112B00F019FE53ECA9
:1012C0001A2B00F03DFDCDE9020101EB065001159E
:1012D0000029C8BF039015DC9DED020B324651EC8E
:1012E000100B00F032FFFFF7F5F9042808BF00F0FB
:1012F000FBF832469DED020B51EC100B00F025FF80
:10130000CDE902019DED020B51EC180B53EC102BB3
:1013100000F0E2FBFFF732BB00009040000000004D
:10132000FE822B654715973C00CC904000346F3F00
:1013300001FCFFFF0000E03F30110000FFFF0F0045
:1013400000000000432EE63F396CA80C615C20BE13
:10135000EF39FAFE422EE63F0010000000000000C8
:10136000000000000000004070B504462DED028B27
:101370004D1E00EBC500B0EE408AF0EE608A90EDA5
:10138000000B35F0060017D053EC182B51EC100B66
:1013900000F0A2FB41EC100B6D1E04EBC50090EDBC
:1013A000001B51EC100B53EC112B00F0FDF841EC3D
:1013B000100B35F00600E7D1022D36D0042D1CD0DD
:1013C000062D1CBFBDEC028B70BD53EC182B51ECED
:1013D000100B00F081FB94ED0A1B53EC112B00F075
:1013E000E3F853EC182B00F077FB94ED081B53EC5B
:1013F000112B00F0D9F841EC100B53EC182B51ECE9
:10140000100B00F069FB94ED061B53EC112B00F060
:10141000CBF853EC182B00F05FFB94ED040B53EC6E
:10142000102B00F0C1F841EC100B53EC182B51ECD1
:10143000100B00F051FB94ED021B53EC112B00F04C
:10144000B3F853EC182B00F047FB94ED001B53EC62
:10145000112B00F0A9F8BDEC028B41EC100B70BD14
:101460009FED070B10B553EC102B9FED070B51ECC4
:10147000100B00F055F941EC100B10BD00000000FE
:101480000000000000000000000000000000F03F2D
:1014900010B553EC112B51EC100B00F085F841EC1A
:1014A000100B10BD000000009FED050B10B553ECB4
:1014B000102B51EC100B00F033F941EC100B10BD68
:1014C00000000000000000009FED050B10B553EC7C
:1014D000102B51EC100B00F0FFFA41EC100B10BD7B
:1014E00000000000000000709FED050B10B553ECEC
:1014F000102B51EC100B00F0EFFA41EC100B10BD6B
:10150000000000000000001082B0CDE9000121F0D1
:10151000004001909DED000B02B051EC100B7047A4
:1015200000B52DED048B83B041EC190B00F014FCD9
:1015300041EC180B18EE100A18EE901A8DED008B86
:10154000002818BF0120084320F00040C0F17F6050
:1015500000F1E040C00F14D019EE101A19EE900AF5
:101560008DED009B002918BF0121084320F00040A9
:10157000C0F17F6000F1E040C00F04BF0120FEF722
:1015800073FE51EC180B03B0BDEC048B00BD81F071
:101590000041704780F00040704721F000417047E3
:1015A00020F000407047000010B591EA030F48BFDB
:1015B00083F0004300F1A484841A71EB030C05D27C
:1015C000121943EB0C03001B61EB0C014FEA1154A1
:1015D000A4EB135CDFF81CE11EEA430F18BF9EEA80
:1015E000445F00F0748021EA045123EA0E0343F4BF
:1015F0008013DCF1200E32D322FA0CFE10EB0E0029
:1016000023FA0CFE41EB0E01CCF1200E03FA0EFE84
:1016100010EB0E00CCF1200E51F10001B1F5801F4E
:1016200032D201EB045112FA0EF2BDE8104058BF5D
:101630007047401C38BF5FEA420218BF704700285D
:1016400014BF20F0010041F100014FEA410313F5FE
:10165000001F38BF7047A1F1C04100F035BB012A1F
:1016600043EB0302ACF1200CDCF11F0E32BF4FF054
:10167000000E23FA0CF310EB030041EB0451B4EB22
:10168000115FD0D0A1EB045101F58011490801EBA5
:1016900004515FEA30000ED350F1000038BF12FA57
:1016A0000EFE08D1BDE81040C9E7401C38BF5FEA14
:1016B0004202CAD1C3E7BDE810404FEA410313F527
:1016C000001F38BF7047A1F1C04100F0FDBA9EEA8B
:1016D000445F08D011EA5E0FBDE8104004BF01F07E
:1016E000004100207047BDE8104070B500F09EFA40
:1016F00064FBBE3E0000E0FF02494FF0000000F036
:10170000F2BC00BF0000F87F491058BFC1F1404152
:101710005B1058BFC3F140438B42EFF3008070472A
:101720002DE9C04130B4DFF8A4C23CEA111418BF5F
:101730003CEA131400F0ED801CEA111481EA030561
:1017400044EAD57418BF1CEA131500F0C880A4EB56
:10175000050404F17F7404F500344FF0004545EAB8
:10176000C12145EAC32341EA505143EA52534FEAAB
:10177000C0204FEAC222994208BF904200F09D80EB
:101780004FEA13650FF24416765D4FEA134506FBE8
:1017900005F7C7F1807706FB07F74FEAD737A7FBB6
:1017A00003687642A7FB06CEC8F5803838BFA8F19B
:1017B000010807FB08E6A6FB028C4FF0000EE6FBD3
:1017C00003CEDCF1000CCEF1004E38BFAEF1010EBD
:1017D000A6FB0C584FF00007E6FB0E87A1FB08C6DE
:1017E000A0FB07CE16EB0E064FF0000545F10005F5
:1017F000E1FB076515F1E04E7EBFA4F580345FEA9A
:1018000046066D4116F1800745F100054FEA17279E
:1018100047EA05674FEA15254FEA0666A6F1DE4658
:10182000B6F1805F20D9384605EBC47124F0010C75
:1018300001EB0C11BCF1FE6F02D8F0BCBDE80081D9
:1018400024425CBF01F5801E9EEAC47F02D4F0BC36
:10185000BDE80081244200F13980A1F1C041F0BC13
:10186000BDE8004100F030BA4FEAD02040EA4150D4
:101870004FEAD1214FEAD22242EA43524FEAD32320
:10188000A7FB028607FB036605FB02661EEA0E0F36
:1018900058BFA6EB0056B6EB00564FEA520E4EEA82
:1018A000C37E18EB0E0E56EB530EBCD518EB020898
:1018B0005E417F1C55F10005B5E74FF480154FF0F0
:1018C00000074FF000064FF00008ACE701F1C041FF
:1018D00001F000414FF00000F0BCBDE800810CEACF
:1018E000131511EA0C1F00D00CE013EA0C1F00F0D6
:1018F00026804FF0000081EA030101F00041F0BCB6
:10190000BDE80081F0BCBDE8004181EA030100F0C0
:10191000DBB9F0BCBDE8004170B500F087F900BF4D
:10192000097EFC3E00F007B84FF0000081EA030199
:1019300001F00041704781EA030100F0C5B9F0BC35
:10194000BDE8004122494FF000007047FFFDFBF960
:10195000F7F5F4F2F0EEEDEBE9E8E6E4E3E1E0DEE2
:10196000DDDBDAD8D7D5D4D3D1D0CFCDCCCBCAC854
:10197000C7C6C5C4C2C1C0BFBEBDBCBBBAB9B8B77B
:10198000B6B5B4B3B2B1B0AFAEADACABAAA9A8A86E
:10199000A7A6A5A4A3A3A2A1A09F9F9E9D9C9C9B3C
:1019A0009A999998979796959594939392919190E7
:1019B0008F8F8E8E8D8C8C8B8B8A89898888878778
:1019C0008685858484838382828181800000FF07ED
:1019D0000000F87F4FEA41034FEA5353A3F58063B9
:1019E000D3F11E03C8BFD3F1210C0CDD4FF0004230
:1019F00042EAC12242EA505232FA03FC8CEAE17C0C
:101A0000ACEBE1707047102BC4BF0020704703F5AA
:101A1000787CBCF1FF3F04D06FF0004282EA2100E5
:101A2000704770B500F002F9499224800020704799
:101A3000F2E710F0004248BF4042B0FA80F310FADB
:101A400003F10AD0C3F11D0303F5806302EB0352D7
:101A50004FEA415002EBD12170474FF00000704730
:101A600051EA030C17D41CF5801F58BFBCF5801F2A
:101A700000F10680994218BF704708BF9042704736
:101A800007D711F5801F58BF13F5801F19D499424D
:101A90007047894270471CF5801F08D5BCF5801F30
:101AA000F7D58B4218BF704708BF824270474FF48A
:101AB000001C1CEB410F38BF1CEB430F01D28B42C3
:101AC000704770B500F0B2F8922449004FF0005111
:101AD0004FF08053FFF718BE70B5DFF848C11CEA1D
:101AE000111E1EBF1CEA13159EEA0C0F95EA0C0F7F
:101AF00000F06F8081EA03044EEAD47EAE4421EA0E
:101B00004C1123EA4C1341F4801143F48013AEF1DD
:101B10007F7EA1FB024CA0FB0365361955EB0C053B
:101B2000A1FB034C4CF10003A0FB021C16EB0C06BE
:101B3000654153F10003094218BF46F0010613F452
:101B4000007F0BD14FEA03314FEA053041EA1551CE
:101B500040EA165034036FF003020AE04FEAC32153
:101B60004FEAC52041EA555140EA5650F4026FF061
:101B7000020202EB2E4201EB025585EACE710AD039
:101B80005FEA440C18BF24F0004450F1000041F11A
:101B9000000120EAD47040F2FE7C624500D270BDA4
:101BA000A84214BF4FF080444FF04044002E08BFBD
:101BB0000024BEF1806FA8BFA1F1C041BDE8704014
:101BC00080F2828001F1C04101F000414FF000003D
:101BD00070470CEA13159EEA0C0F18BF95EA0C0F1C
:101BE00006D081EA030E4FF000000EF0004170BDF8
:101BF00000F01CF88900013E00F007B800F009B8B9
:101C00004FEA430C5FEA5C5C08D081EA030100F014
:101C10005BB84FEA410C5FEA5C5CF6D102494FF0D9
:101C2000000070470000FF070000F87F0EF1020E71
:101C30002EF0030E5EF8046B364205D4012A43EB06
:101C4000030515F5001F12D8012841EB010C1CF506
:101C5000001F0CD80ED14FEAD17C0CEB4C0C0CF1D0
:101C6000020C15F5001F08BF4CEBD37C04E04FF0CD
:101C7000080C01E04FEAD37C0CEB4C0526FA05F684
:101C800006F00706B6F1040C06D20EEB860CBDE892
:101C900070404CF0010C6047DFE80CF0090B0202C9
:101CA0004FF00041A1F500214FF0000070BD194632
:101CB0001046012851EB010418BFD4F5001484BF6D
:101CC000002001F0004170BD0808A0F500114FEAA6
:101CD0003101704753EA010C17D41CF5801F58BF1F
:101CE000BCF5801F00F106808B4218BF704708BF0B
:101CF0008242704707D713F5801F58BF11F5801F28
:101D000019D48B4270479B4270471CF5801F08D541
:101D1000BCF5801FF7D5994218BF704708BF9042A5
:101D200070474FF4001C1CEB430F38BF1CEB410FF6
:101D300001D2994270470FB40CBC03BCFFF7C1BE7F
:101D400010B591EA030F81F000413FF535AC83F007
:101D5000004300F0D5B800002DE9F04101F5801CEA
:101D6000BCF5001FC0F2A9804FEA115C21EA0C51BA
:101D700041F480110CF1FD0C5FEA5C0C0CF5C07CA9
:101D800001D340004941890241EA905187022EA4C3
:101D90008E0EA45D0A0C04FB04F602FB06F6C6F1E7
:101DA0004046A4FB0662F60D46EA422606FB06F410
:101DB000A4FB01235242C3F1404338BF5B1EA6FB84
:101DC00002420024E6FB0324D20B42EA4446A6FB6F
:101DD0000623A1FB02E2A3FB07E4E3FB61426442AA
:101DE000C2F1404E38BFAEF1010EA6FB04234FF006
:101DF0000002E6FB0E32A2FB03463400E2FB626403
:101E0000A1FB06E6A4FB07E8E4FB61687642C8F1A3
:101E1000405838BFA8F10108A2FB06E4A3FB08E57F
:101E2000E2FB6854A1FB05E6A7FB04E8E1FB64863E
:101E300018F1200556F10006A80940EA8660B109AC
:101E4000A8F11B0808F03F08B8F10A0F1CD901EBF4
:101E50000C51BDE8F08100BFFCF5EEE8E2DDD8D31F
:101E6000CFCBC7C3C0BDB9B6B4B1AEACA9A7A5A30B
:101E7000A19F9D9B9A9896959392908F8D8C8B891C
:101E80008887868584838281A0FB006800FB01F23D
:101E900008EB4208B8EB872807D5341858EB010443
:101EA000D5D5401C51F10001D1E7341A78EB01047B
:101EB000CDD4401E71F10001C9E75FEA4C0C5FEA26
:101EC0009C5C0DD105D301F000414FF00000BDE84E
:101ED000F081BDE8F04170B5FFF7A8FE6DDBFFBEF5
:101EE000BDE8F04101494FF0000070470000F87F65
:101EF00010B591EA030F48BF83F000433FF55CAB98
:101F0000841A71EB030C07D28CF0004C121943EBCE
:101F10000C03001B61EB0C014FEA1154A4EB135CA2
:101F2000DFF8A4E11EEA430F18BF9EEA445F00F009
:101F3000B48021EA045123EA6E035242C3EB6E03DC
:101F400038BF5B1EDCF1200E25D322FA0CFE10EB0D
:101F50000E0043FA0CFE41EB0E01CCF1200E03FA09
:101F60000EFE10EB0E00CCF1200E51F1000129D431
:101F700001EB045112FA0EF2BDE8104058BF704751
:101F8000401C1CBFB2F1004F704700280CBF491C19
:101F900020F00100704712EB020E43EB030218BF62
:101FA0004FF0010E4EEA4202ACF1200CDCF11E0EA5
:101FB00056D943FA0CFE10EB0E00CCF11E0E51F177
:101FC000FF31D5D50EF1010E12FA0EFE404141EB64
:101FD000010101EB445C5FEA5C5C10D901EB045148
:101FE00010EBDE7038BFBEF1004FBDE8104018BFE7
:101FF000704700280CBF491C20F00100704734D204
:102000004FEAD42C24F4006411F500111BD0B1FA6E
:1020100081F20B3AA41AA41ED2F12003914030FAA7
:1020200003F31943904001EBCC7101EB0451002CF8
:10203000BDE81040A8BF704701F1C04101F0004168
:102040004FF000007047B0FA80F310FA03F102D1AC
:10205000BDE810407047E41A173C4805C90AE2E79A
:1020600001EB0451BDE81040704749104FEA3000C1
:1020700001EB0451BDE8104002E04FF00001704751
:102080004A0008BF0042F8D0B2F5001F28BF7047D1
:1020900001F000414FF0000070479EEA445F07D016
:1020A00011EA5E0FBDE8104004BF00210020704718
:1020B000BDE8104070B5FFF7B9FD00BF40DFF63E48
:1020C000104683F0004170470000E0FFF1EE100A77
:1020D0004FF6FF71C0F2C03120EA010040F04070BD
:1020E000E1EE100A70470CF00F03092B08BF08201F
:1020F00000F059800A2B0BD0082B18BF704708BF7F
:102100001CF0400F0AD04FF000004FF00001704764
:102110001CF0400F18BF4FF0004070471CF0100F2C
:1021200008D000F07F4220F0704342EAD3014FEA2A
:102130004370704700F0604021F07F4242EA0002A5
:1021400001F07F4040EA727070474FF0FF0C4CF492
:10215000E06C1CEA11531CBF9CEA030C9445C2BFFF
:10216000DA4201EB02517047002B0DD0BCF1000F99
:102170000FD001F00041002AA4BF41F0E04141F03E
:102180007F614FF00000704701F000414FF0000008
:10219000704750EA01334FF09B0C18BF4CF0806C35
:1021A0007FF4AAAA70471CF4801F11D01CF4E02F02
:1021B00003D06FEACC31490070474FF04050EFF345
:1021C000008222F0704242EA000282F300887047E7
:1021D0004FF0000070470000000000000000F03FDA
:1021E000000000000000F83F0000000000000000B8
:1021F0000000004003B8E23F0000000000000000C3
:1022000006D0CF43EBFD4C3E033333333333E33F50
:10221000FFAB6FDBB66DDB3F4D268F515555D53F7C
:1022200001411DA96074D13F65DBC9934A86CD3F4A
:10223000EF4E454A287ECA3F3E5555555555C53F38
:1022400093BDBE166CC166BF2CDE25AF6A56113F2A
:10225000F16BD2C541BDBBBED0A4BE726937663E2C
:1022600000000000000000007822000800000020AC
:0822700060060000D001000827
:040000050800019559
:00000001FF
