:020000040800F2
:10000000704600201902000821020008230200089F
:10001000250200082702000829020008000000004D
:100020000000000000000000000000002B0200089B
:100030002D020008000000002F0200083102000815
:1000400033020008330200083302000833020008BC
:1000500033020008330200083302000833020008AC
:10006000330200083302000833020008330200089C
:10007000330200083302000833020008330200088C
:1000800033020008330200083302000800000000B9
:100090000000000000000000000000003302000823
:1000A000330200083302000833020008330200085C
:1000B000330200083302000833020008330200084C
:1000C000330200083302000833020008330200083C
:1000D0003302000833020008330200080000000069
:1000E0003302000833020008330200080000000059
:1000F00000000000000000000000000033020008C3
:100100000000000033020008330200083302000838
:1001100000000000000000000000000000000000DF
:1001200033020008330200083302000833020008DB
:100130003302000800000000000000000000000082
:100140000000000000000000000000003302000872
:1001500033020008330200083302000833020008AB
:100160003302000833020008000000000000000015
:10017000000000000000000000000000000000007F
:100180000000000033020008000000000000000032
:100190003302000800F002F800F02EF80AA090E800
:1001A000000C82448344AAF10107DA4501D100F032
:1001B00023F8AFF2090EBAE80F0013F0010F18BFD1
:1001C000FB1A43F001031847340F0000440F0000EE
:1001D0000023002400250026103A28BF78C1FBD850
:1001E000520728BF30C148BF0B6070471FB500F0F1
:1001F00077FF1FBD10B510BD00F058F81146FFF78E
:10020000F5FF00F001FA00F076F803B4FFF7F2FF13
:1002100003BC00F07DF8000009488047094800470A
:10022000FEE7FEE7FEE7FEE7FEE7FEE7FEE7FEE7A6
:10023000FEE7FEE704480549054A064B7047000003
:100240003905000895010008704000207046002024
:1002500070420020704200204FF0000200B51346AB
:1002600094469646203922BFA0E80C50A0E80C50D6
:10027000B1F12001BFF4F7AF090728BFA0E80C5087
:1002800048BF0CC05DF804EB890028BF40F8042B80
:1002900008BF704748BF20F8022B11F0804F18BFED
:1002A00000F8012B7047704770477047754600F0A3
:1002B0002BF8AE4605006946534620F007008546F8
:1002C00018B020B5FFF7B6FFBDE820404FF000069C
:1002D0004FF000074FF000084FF0000BAC46ACE8C1
:1002E000C009ACE8C009ACE8C009ACE8C00921F01D
:1002F00007018D46704710B50446AFF300802046D5
:10030000BDE81040FFF781BF0048704700000020A3
:1003100001491820ABBEFEE726000200704700002E
:10032000B0B5002808BFB0BD044600254FF47A7070
:1003300000F004F80135A542F8D3B0BD2421C4F281
:10034000000100220A6000BF0A688242FCD37047A5
:10035000F0B581B040F21445C4F2020529680446A4
:1003600021F0010028606420FFF7E8FF286820F0F2
:10037000020028606420FFF7E1FF286820F00400F5
:1003800028606420FFF7DAFF002000F04BF8C82057
:10039000FFF7D4FF042664206E60FFF7CFFF6420D0
:1003A000C5F80044FFF7CAFF4FF4802764206F6050
:1003B000FFF7C4FF012000F035F8C820FFF7BEFFAB
:1003C00064206E60FFF7BAFF6420C5F80044FFF7B1
:1003D000B5FF64206F60FFF7B1FF01B0F0BD000012
:1003E00010B540F21844C4F202044FF05530C4F87E
:1003F000E80344F8180C0020CFF6FF7020604FF49B
:100400009670FFF79BFF082020604FF49670FFF76F
:1004100095FFC020FFF79CFF3F20FFF799FF00F0FA
:10042000DBF810BD40F218410328C4F202010ED8D7
:10043000DFE800F002121D202020C0F2100008604A
:1004400044F26000C2F200000021016070471020F9
:10045000C0F22000086070471020C0F22000086041
:1004600044F26000C2F200000121016070473020B8
:10047000086070474FF440100860704743F6300042
:10048000C4F20200016841F001010160016941F418
:1004900000310161016941F001010161016841F030
:1004A00002010160016841F0040101607047000031
:1004B000B0B500F03F0440F218454020C4F20205F8
:1004C000C0F28000C5F8FC43C5F800044FF440308A
:1004D0002860042028606420FFF730FF4FF480205C
:1004E00028606420FFF72AFF44F26400C2F2000093
:1004F0000460B0BDB0B500F0070440F21845B82064
:10050000C4F20205C0F24000C5F8FC43C5F800047F
:100510004FF440302860042028606420FFF70EFF6D
:100520004FF4802028606420FFF708FF44F2680041
:10053000C2F200000460B0BD4EF68850CEF200005A
:10054000016841F4700101604FF0006140F8801CC7
:10055000704700001020C4F200000F2181614FF6A7
:10056000FF71C1614FF080410A6842F001020A60E8
:100570000168C907FCD070470020C4F2020001687E
:1005800040F2836241F4806101604FF400118161A7
:10059000016A21F47F410162016A41F4EE41016286
:1005A000016821F0F0010160016841F0A0010160E3
:1005B00044F20C40C4F200000021016050F8041C19
:1005C000114340F8041C016841F00C01016001680E
:1005D00041F400510160704780B540F26000C2F202
:1005E00000004FF48041FFF737FE00F0F1F880BDC6
:1005F00044F20040C4F2000001688906FCD540685E
:10060000704700000000000086B0FFF737FFFFF7DB
:10061000A1FFFFF7B1FFFFF7E3FE0020C4F20200E5
:1006200001689FED3D0B41F0AA419FED3D1B01602C
:1006300000208DED040B8DED021B8DED001BFFF7EF
:1006400037FF0020FFF7EEFE00F0C2F800F0B6F82A
:100650009FED350B40F2600655EC108BC2F20006A0
:10066000012717E0FFF7C4FF00F037FB41EC100B48
:1006700042468DED020B9DED020B2B4651EC100B0B
:1006800000F0A2F941EC100B8DED020BFFF7A4FF77
:1006900000F09EF80A20FFF743FEFFF7A9FFC0B263
:1006A000FD2823D0FE28DDD0FF28F1D100F086F808
:1006B000002400BFFFF79CFF00F00FFB9DED020B35
:1006C00002460B4651EC100B00F01EFB9DED000B9B
:1006D00053EC102B00F0D0F800F0D0FA06EB4000FD
:1006E00007538034B4F5804FE4D1D1E7FFF780FFA2
:1006F00000F0F3FA41EC100B42468DED000B9DED3E
:10070000000B2B4651EC100B00F05EF941EC100B86
:100710008DED000BBAE700BF00000000000059405B
:10072000000000000000F03F000000000000244036
:10073000B0B540F21845C0B2C4F2020544F26404F8
:10074000C5F8FC03C2F200042068013020600120DB
:10075000C0F202002860042028606420FFF7EEFD4C
:100760004FF4802028606420FFF7E8FD20684028CF
:1007700018BFB0BD44F26000C2F20000006801285A
:100780000FD10020FFF74EFE44F26800C2F20000D5
:1007900000680130C11700EB517121F00701401AC8
:1007A00007E00120FFF73EFE44F26800C2F20000BD
:1007B0000068FFF79FFE00202060B0BD80B540F2CA
:1007C0006000C2F200004FF48041FFF745FD80BD9C
:1007D0002DE9F04F81B044F26400C2F20000D0F87D
:1007E000009044F26800C2F2000000684FF0000B75
:1007F000009044F26000C2F20000D0F800A0002097
:10080000FFF756FE0020FFF70DFE0020FFF772FEF7
:1008100040F26008C2F20008002546460027344630
:100820000020002134F8112002F001028A40013139
:10083000082940EA0200F5D1FFF77AFF0137402F7F
:1008400004F18004ECD1002D05F1010506F50056F8
:10085000E4D00BF1010BBBF1080F08F11008DBD15C
:100860004846FFF725FE5046FFF7DCFD0098FFF7EE
:1008700041FE01B0BDE8F08F10B591EA030F48BF0B
:1008800083F0004300F14683841A71EB030C05D218
:10089000121943EB0C03001B61EB0C014FEA1154DE
:1008A000A4EB135CDFF81CE11EEA430F18BF9EEABD
:1008B000445F00F0748021EA045123EA0E0343F4FC
:1008C0008013DCF1200E32D322FA0CFE10EB0E0066
:1008D00023FA0CFE41EB0E01CCF1200E03FA0EFEC2
:1008E00010EB0E00CCF1200E51F10001B1F5801F8C
:1008F00032D201EB045112FA0EF2BDE8104058BF9B
:100900007047401C38BF5FEA420218BF704700289A
:1009100014BF20F0010041F100014FEA410313F53B
:10092000001F38BF7047A1F1C04100F0E5BA012AAD
:1009300043EB0302ACF1200CDCF11F0E32BF4FF091
:10094000000E23FA0CF310EB030041EB0451B4EB5F
:10095000115FD0D0A1EB045101F58011490801EBE2
:1009600004515FEA30000ED350F1000038BF12FA94
:100970000EFE08D1BDE81040C9E7401C38BF5FEA51
:100980004202CAD1C3E7BDE810404FEA410313F564
:10099000001F38BF7047A1F1C04100F0ADBA9EEA18
:1009A000445F08D011EA5E0FBDE8104004BF01F0BB
:1009B000004100207047BDE8104070B500F04EFACD
:1009C00064FBBE3E0000E0FF2DE9C04130B4DFF81B
:1009D000A4C23CEA111418BF3CEA131400F0ED80E5
:1009E0001CEA111481EA030544EAD57418BF1CEA15
:1009F000131500F0C880A4EB050404F17F7404F51E
:100A000000344FF0004545EAC12145EAC32341EADD
:100A1000505143EA52534FEAC0204FEAC222994252
:100A200008BF904200F09D804FEA13650FF2441614
:100A3000765D4FEA134506FB05F7C7F1807706FBA5
:100A400007F74FEAD737A7FB03687642A7FB06CE26
:100A5000C8F5803838BFA8F1010807FB08E6A6FBF7
:100A6000028C4FF0000EE6FB03CEDCF1000CCEF161
:100A7000004E38BFAEF1010EA6FB0C584FF0000738
:100A8000E6FB0E87A1FB08C6A0FB07CE16EB0E0601
:100A90004FF0000545F10005E1FB076515F1E04E5B
:100AA0007EBFA4F580345FEA46066D4116F18007EB
:100AB00045F100054FEA172747EA05674FEA152574
:100AC0004FEA0666A6F1DE46B6F1805F20D93846C9
:100AD00005EBC47124F0010C01EB0C11BCF1FE6FAD
:100AE00002D8F0BCBDE8008124425CBF01F5801E45
:100AF0009EEAC47F02D4F0BCBDE80081244200F12C
:100B00003980A1F1C041F0BCBDE8004100F0F4B96A
:100B10004FEAD02040EA41504FEAD1214FEAD22299
:100B200042EA43524FEAD323A7FB028607FB036640
:100B300005FB02661EEA0E0F58BFA6EB0056B6EB89
:100B400000564FEA520E4EEAC37E18EB0E0E56EBDD
:100B5000530EBCD518EB02085E417F1C55F1000511
:100B6000B5E74FF480154FF000074FF000064FF047
:100B70000008ACE701F1C04101F000414FF0000076
:100B8000F0BCBDE800810CEA131511EA0C1F00D07F
:100B90000CE013EA0C1F00F026804FF0000081EA01
:100BA000030101F00041F0BCBDE80081F0BCBDE8EC
:100BB000004181EA030100F09FB9F0BCBDE80041AB
:100BC00070B500F04BF900BF097EFC3E00F007B89D
:100BD0004FF0000081EA030101F00041704781EA13
:100BE000030100F089B9F0BCBDE8004122494FF093
:100BF00000007047FFFDFBF9F7F5F4F2F0EEEDEBC6
:100C0000E9E8E6E4E3E1E0DEDDDBDAD8D7D5D4D30A
:100C1000D1D0CFCDCCCBCAC8C7C6C5C4C2C1C0BF56
:100C2000BEBDBCBBBAB9B8B7B6B5B4B3B2B1B0AF5C
:100C3000AEADACABAAA9A8A8A7A6A5A4A3A3A2A140
:100C4000A09F9F9E9D9C9C9B9A99999897979695FB
:100C500095949393929191908F8F8E8E8D8C8C8B97
:100C60008B8A89898888878786858584848383821F
:100C7000828181800000FF070000F87F4FEA410376
:100C80004FEA5353A3F58063D3F11E03C8BFD3F1DA
:100C9000210C0CDD4FF0004242EAC12242EA5052E0
:100CA00032FA03FC8CEAE17CACEBE1707047102B6C
:100CB000C4BF0020704703F5787CBCF1FF3F04D02F
:100CC0006FF0004282EA2100704770B500F0C6F86C
:100CD0004992248000207047F2E710F0004248BF9C
:100CE0004042B0FA80F310FA03F10AD0C3F11D03B9
:100CF00003F5806302EB03524FEA415002EBD1212E
:100D000070474FF00000704770B5DFF848C11CEA2B
:100D1000111E1EBF1CEA13159EEA0C0F95EA0C0F5C
:100D200000F06F8081EA03044EEAD47EAE4421EAEB
:100D30004C1123EA4C1341F4801143F48013AEF1BB
:100D40007F7EA1FB024CA0FB0365361955EB0C0519
:100D5000A1FB034C4CF10003A0FB021C16EB0C069C
:100D6000654153F10003094218BF46F0010613F430
:100D7000007F0BD14FEA03314FEA053041EA1551AC
:100D800040EA165034036FF003020AE04FEAC32131
:100D90004FEAC52041EA555140EA5650F4026FF03F
:100DA000020202EB2E4201EB025585EACE710AD017
:100DB0005FEA440C18BF24F0004450F1000041F1F8
:100DC000000120EAD47040F2FE7C624500D270BD82
:100DD000A84214BF4FF080444FF04044002E08BF9B
:100DE0000024BEF1806FA8BFA1F1C041BDE87040F2
:100DF00080F2828001F1C04101F000414FF000001B
:100E000070470CEA13159EEA0C0F18BF95EA0C0FF9
:100E100006D081EA030E4FF000000EF0004170BDD5
:100E200000F01CF88900013E00F007B800F009B896
:100E30004FEA430C5FEA5C5C08D081EA030100F0F2
:100E40005BB84FEA410C5FEA5C5CF6D102494FF0B7
:100E5000000070470000FF070000F87F0EF1020E4F
:100E60002EF0030E5EF8046B364205D4012A43EBE4
:100E7000030515F5001F12D8012841EB010C1CF5E4
:100E8000001F0CD80ED14FEAD17C0CEB4C0C0CF1AE
:100E9000020C15F5001F08BF4CEBD37C04E04FF0AB
:100EA000080C01E04FEAD37C0CEB4C0526FA05F662
:100EB00006F00706B6F1040C06D20EEB860CBDE870
:100EC00070404CF0010C6047DFE80CF0090B0202A7
:100ED0004FF00041A1F500214FF0000070BD194610
:100EE0001046012851EB010418BFD4F5001484BF4B
:100EF000002001F0004170BD0808A0F500114FEA84
:100F00003101704710B591EA030F48BF83F00043E9
:100F10003FF5BAAC841A71EB030C07D28CF0004C8D
:100F2000121943EB0C03001B61EB0C014FEA115447
:100F3000A4EB135CDFF8A4E11EEA430F18BF9EEA9E
:100F4000445F00F0B48021EA045123EA6E03524268
:100F5000C3EB6E0338BF5B1EDCF1200E25D322FAF3
:100F60000CFE10EB0E0043FA0CFE41EB0E01CCF12F
:100F7000200E03FA0EFE10EB0E00CCF1200E51F104
:100F8000000129D401EB045112FA0EF2BDE8104021
:100F900058BF7047401C1CBFB2F1004F704700287B
:100FA0000CBF491C20F00100704712EB020E43EB0E
:100FB000030218BF4FF0010E4EEA4202ACF1200CC2
:100FC000DCF11E0E56D943FA0CFE10EB0E00CCF1EC
:100FD0001E0E51F1FF31D5D50EF1010E12FA0EFEA3
:100FE000404141EB010101EB445C5FEA5C5C10D9DC
:100FF00001EB045110EBDE7038BFBEF1004FBDE8CD
:10100000104018BF704700280CBF491C20F0010099
:10101000704734D24FEAD42C24F4006411F5001147
:101020001BD0B1FA81F20B3AA41AA41ED2F120030C
:10103000914030FA03F31943904001EBCC7101EB7E
:101040000451002CBDE81040A8BF704701F1C04119
:1010500001F000414FF000007047B0FA80F310FA41
:1010600003F102D1BDE810407047E41A173C48056F
:10107000C90AE2E701EB0451BDE81040704749108E
:101080004FEA300001EB0451BDE8104002E04FF0A0
:10109000000170474A0008BF0042F8D0B2F5001FB7
:1010A00028BF704701F000414FF0000070479EEAF2
:1010B000445F07D011EA5E0FBDE8104004BF002175
:1010C00000207047BDE8104070B5FFF7C7FE00BFB5
:1010D00040DFF63E104683F0004170470000E0FF1D
:1010E000F1EE100A4FF6FF71C0F2C03120EA0100A4
:1010F00040F04070E1EE100A704700000C1100084B
:0C1100000000002070460000D001000834
:040000050800019559
:00000001FF
