:020000040800F2
:1000000000070020350200083D0200083F020008FA
:1000100041020008430200084502000800000000F9
:10002000000000000000000000000000470200087F
:1000300049020008000000004B0200084D020008C1
:100040004F0200084F0200084F0200084F0200084C
:100050004F0200084F0200084F0200084F0200083C
:100060004F0200084F0200084F0200084F0200082C
:100070004F0200084F0200084F0200084F0200081C
:100080004F0200084F0200084F0200080000000065
:100090000000000000000000000000004F02000807
:1000A0004F0200084F0200084F0200084F020008EC
:1000B000E1060008190800084F0200084F02000876
:1000C0004F0200084F0200084F0200084F020008CC
:1000D0004F0200084F0200084F0200080000000015
:1000E0004F0200084F0200084F0200080000000005
:1000F0000000000000000000000000004F020008A7
:10010000000000004F0200084F0200084F020008E4
:1001100000000000000000000000000000000000DF
:100120004F0200084F0200084F0200084F0200086B
:100130004F02000800000000000000000000000066
:100140000000000000000000000000004F02000856
:100150004F0200084F0200084F0200084F0200083B
:100160004F0200084F0200080000000000000000DD
:10017000000000000000000000000000000000007F
:10018000000000004F020008000000000000000016
:100190004F02000800F002F800F03CF80AA090E8D6
:1001A000000C82448344AAF10107DA4501D100F032
:1001B00031F8AFF2090EBAE80F0013F0010F18BFC3
:1001C000FB1A43F0010318473029000050290000B2
:1001D000103A24BF78C878C1FAD8520724BF30C873
:1001E00030C144BF04680C60704700000023002445
:1001F00000250026103A28BF78C1FBD8520728BF37
:1002000030C148BF0B6070471FB502F0A5FB1FBD92
:1002100010B510BD00F06CF81146FFF7F5FF00F0C7
:100220008BFC00F08AF803B4FFF7F2FF03BC00F088
:100230008DF800000948804709480047FEE7FEE7BF
:10024000FEE7FEE7FEE7FEE7FEE7FEE7FEE7FEE786
:1002500004480549054A064B704700007906000826
:100260009501000800010020000700200003002085
:10027000000300204FF0000200B513469446964656
:10028000203922BFA0E80C50A0E80C50B1F12001A9
:10029000BFF4F7AF090728BFA0E80C5048BF0CC057
:1002A0005DF804EB890028BF40F8042B08BF7047B5
:1002B00048BF20F8022B11F0804F18BF00F8012B27
:1002C000704770477047704710B500F009F8006834
:1002D00010BD10B5044600F003F8046010BD000026
:1002E00000487047180000200048704718000020A0
:1002F0007546FFF7F9FFAE4605006946534620F004
:100300000700854618B020B5FFF7A2FFBDE82040E2
:100310004FF000064FF000074FF000084FF0000BC1
:10032000AC46ACE8C009ACE8C009ACE8C009ACE830
:10033000C00921F007018D46704710B50446AFF3A0
:1003400000802046BDE81040FFF76DBF014918202E
:10035000ABBEFEE7260002007047000043F6300007
:10036000C4F20200016841F001010160416941F4F9
:10037000807141610020C4F20200016841F0030174
:100380000160016841F00C01016042F20800C4F212
:10039000010000210160416A4162C16AC1620168D5
:1003A00041F00101016070472DE9F04F81B054EC3C
:1003B000105B2846214601F0EDFE804601F019FF52
:1003C00002460B462846214602F0AEF99FED2A0B65
:1003D0005AEC10BB5A46534601F09AFF01F0DAFE80
:1003E0008146802000F0A8F8142000F0A5F8142021
:1003F00000F0A2F89FED220B284657EC106B214627
:1004000032463B4602F07EFA38B1312000F0C4F8A3
:100410002E2000F0C1F8302022E028462146324646
:100420003B4602F084FA88B9284621465A4653468C
:1004300001F06EFF01F0AEFE0446302000F0ACF893
:100440002E2000F0A9F804F1300009E008F1300096
:10045000C0B200F0A1F82E2000F09EF809F13000A3
:10046000C0B200F099F8762000F096F801B0BDE82F
:10047000F08F00BF00BF00BF00000000000024405C
:10048000000000000000F03FB0B5002808BFB0BD7C
:10049000044600254FF47A7000F004F80135A542B7
:1004A000F8D3B0BD40F62401C4F2000100220A6076
:1004B0000A688242FCD3704780B52DED028B012083
:1004C00000F03AF8422000F067F83D2000F064F8B0
:1004D0009FED158BB0EE480AF0EE680AFFF764FF57
:1004E000142000F029F8562000F056F83D2000F0C6
:1004F00053F8B0EE480AF0EE680A00F08DFAC0201A
:1005000000F01AF8542000F047F8552000F044F8A5
:100510003D2000F041F89FED060B00F0C1F9BDEC65
:10052000028B80BD00BF00BF000000000000F03F54
:100530000000000000005940B0B540F21445C4F27C
:1005400002052968044621F002012960296821F08A
:100550000100286040F61800C4F202004FF47F0149
:1005600001600020C5F80044FFF79CFF286840F0B8
:10057000040028600020FFF787FF2868032C20F084
:100580000400286003D80220FFF77EFFB0BD3220B0
:10059000FFF788FFB0BD000010B540F21444C4F26C
:1005A000020421684FF47F0241F0010121602168BB
:1005B00021F00201216040F61801C4F202010A6034
:1005C000C4F80004206840F0040020600020FFF719
:1005D0005BFF206820F0040020600120FFF754FF3B
:1005E00010BD000080B500F029F80A20FFF74CFF8D
:1005F0003020FFF7A1FF0520FFF746FF3020FFF76F
:100600009BFF0120FFF740FF3020FFF795FF0120FF
:10061000FFF73AFF3020FFF78FFF0120FFF734FF8D
:100620003820FFF789FF0620FFF786FF0120FFF73C
:1006300083FF0F20FFF780FF80BD000043F63000EE
:10064000C4F20200016841F00201016040F2004181
:10065000C4F202010A6842F0552242F055020A60D3
:10066000026842F004020260D1F8000440F0553004
:10067000C1F80004704700004EF68850CEF200002A
:10068000016841F4700101604FF0006140F8801C86
:100690007047000080B5EFF3108072B643F640005B
:1006A000C4F20200016841F0010101600C20C4F2B3
:1006B00000000F21C1614FF47F610162002181615F
:1006C000016841F0010101604FF08040016841F094
:1006D000010101601C2000F023FA62B680BD000019
:1006E00081B00020C4F20200016845F20003C5F2A7
:1006F000555319430160102142F20002C4F2000177
:100700000023C4F201020B60916840F6140341F02B
:10071000804191601168C4F20203890707D400BFC9
:10072000196821F40041196011688907F8D540F271
:10073000F80CC2F2000CDCF800107F2941DC92EDCD
:10074000130A9FED211AB8EE400A8DED000A9DEDC7
:10075000000A4169BDEEC00A10EE102A41EA4211BA
:100760004161186842F2830240F4004018609DED38
:10077000000AC8F2082280EE010A9FED141A8DEDDE
:10078000000A9DED000ADCF8000020EE010A01EEEF
:10079000100AB8EEC11A30EE010ABDEEC00A10EE22
:1007A000101A52FB0112530903EBD272C2EB8212F0
:1007B000891A40F27802C2F2000211540130CCF8DA
:1007C000000001B0704700BF00F07F45000080428C
:1007D00080B5EFF3108072B643F64000C4F2020019
:1007E000016841F00201016040F20040C4F20000E3
:1007F0000F2181624FF49E61C16200214162C16894
:1008000041F00101C160016841F0010101601D205A
:1008100000F086F962B680BD70B540F21040C4F2B7
:100820000000002140F2F8040160C2F200042068D8
:10083000802818BF70BDFF2000F0E2FA0120FFF70A
:1008400031FE40F27800C2F20000451E802600BF53
:1008500015F8010F00F0D4FA0120FFF723FE013E46
:10086000F6D16420FFF710FE0020206070BD00006C
:1008700043F6400140F60000C4F202010422C4F233
:1008800000000A600F2181624FF6FF71C1620168AA
:1008900041F00101016000BF0169C907FCD0704748
:1008A0002DE9F04381B02DED028BB0EE408AC020DF
:1008B000F0EE608AFFF740FE5420FFF76DFE5520F2
:1008C000FFF76AFE3D20FFF767FE58EC189B48468D
:1008D000414601F05FFC0646002701280DDB46F289
:1008E0006760C6F26660314651FB00F29310092939
:1008F00003EBD27107F10107F6DC012F2EDB9FED30
:10090000248B00BF384601F074FC41EC110BB0EEB3
:10091000480AF0EE680A00F09BFA51EC100B01F067
:1009200039FC96FBF0F17C1E01FB1065204601F0BE
:1009300060FC41EC110BB0EE480AF0EE680A00F0E2
:1009400087FA51EC100B01F025FC95FBF0F03030EC
:10095000C0B2FFF721FE012F2746D3DC6D20FFF741
:100960001BFE7320FFF718FE9FED0B0B484653EC60
:10097000102B414601F0DBFF10B92020FFF70CFEE1
:100980001020FFF7D9FDBDEC028B01B0BDE8F0836C
:10099000000000000000244000000000000059405A
:1009A00043F63000C4F20200016840F2836241F075
:1009B00001010160016941F4003101610020C4F2CC
:1009C0000200016841F4806101604FF4001181610F
:1009D000016A21F47F410162016A41F4EE41016242
:1009E000016821F0F0010160016841F0A00101609F
:1009F00044F20C40C4F200000021016050F8041CD5
:100A0000114340F8041C016841F00C0101600168C9
:100A100041F40051016070472DE9F04F81B054EC72
:100A2000105B2846214601F0B5FB804601F0E1FB52
:100A300002460B462846214601F076FE9FED340B18
:100A40005AEC10BB5A46534601F062FC01F0A2FB7F
:100A500081468020FFF770FD1420FFF76DFD142004
:100A6000FFF76AFD1420FFF767FD1420FFF764FD10
:100A70001420FFF761FD1420FFF75EFD1420FFF73F
:100A80005BFD1420FFF758FD1420FFF755FD9FED87
:100A9000220B284657EC106B214632463B4601F0AC
:100AA00031FF38B13120FFF777FD2E20FFF774FDBD
:100AB000302022E02846214632463B4601F037FFEF
:100AC00088B9284621465A46534601F021FC01F0D8
:100AD00061FB04463020FFF75FFD2E20FFF75CFD31
:100AE00004F1300009E008F13000C0B2FFF754FD16
:100AF0002E20FFF751FD09F13000C0B2FFF74CFD89
:100B00007620FFF749FD01B0BDE8F08F00BF00BFC0
:100B10000000000000002440000000000000F03F42
:100B200000F01F00012101FA00F04EF20011CEF298
:100B3000000108607047000084B040F2780040F285
:100B40001048C2F200008021C4F20208FFF792FBB5
:100B5000FFF78EFEC820FFF797FCFFF743FDFFF776
:100B60001FFFFFF7FBFBFFF7A7FCFFF793FDFFF766
:100B70002FFE9FED970B9FED981B51EC100B9FEDF7
:100B8000980B9FED998B40F2000940F2080A9FED07
:100B9000989B9FED99AB40F2100BC2F20009CDE992
:100BA000021057EC116B51EC100B55EC184BC2F2C4
:100BB000000AC2F2000BCDE9001000BF4FF4604004
:100BC000C8F80400D8F80000C00528D4EFF310805E
:100BD00072B699ED000BDDE9023251EC100B01F019
:100BE00087F841EC100B89ED000B99ED000BFFF736
:100BF00013FFFE2000F004F90120FFF753FC99EDEC
:100C0000000B324651EC100B3B4601F081FB01F02A
:100C1000C1FA00F0F5F81420FFF736FC62B6D8F8F8
:100C20000000800534D462B699ED000BDDE9003296
:100C300051EC100B01F05CF841EC100B224689EDF1
:100C4000000B99ED000B2B4651EC100B01F068FEE8
:100C5000002808BF89ED008B99ED000BFFF7DCFE43
:100C6000FE2000F0CDF80120FFF71CFC99ED000BF1
:100C7000324651EC100B3B4601F04AFB01F08AFA78
:100C800000F0BEF81420FFF7FFFBEFF3108072B600
:100C9000D8F80000400528D462B69AED000BDDE9D3
:100CA000023251EC100B01F023F841EC100B8AEDED
:100CB000000B9AED000BFFF777FBFD2000F0A0F88A
:100CC0000120FFF7EFFB9AED000B324651EC100BC1
:100CD0003B4601F01DFB01F05DFA00F091F8142095
:100CE000FFF7D2FBEFF3108072B64FF45040C8F814
:100CF0000400D8F80000C00534D462B69AED000BA9
:100D0000DDE9003251EC100B00F0F2FF41EC100B6A
:100D100022468AED000B9AED000B2B4651EC100B8E
:100D200001F0FEFD002808BF8AED008B9AED000B54
:100D3000FFF73AFBFD2000F063F80120FFF7B2FB5C
:100D40009AED000B324651EC100B3B4601F0E0FAF5
:100D500001F020FA00F054F81420FFF795FBEFF3B0
:100D6000108072B6D8F80000800512D49BED000BFD
:100D700053EC192B51EC100B00F0BAFF41EC100BA7
:100D80008BED000B9BED000BFFF78AFD1420FFF7A6
:100D90007BFBD8F8000040053FF510AF9BED000B42
:100DA00053EC1A2B51EC100B00F0A2FF41EC100B8E
:100DB0008BED000B9BED000BFFF772FD652000F043
:100DC0001FF81420FFF760FBF8E600BF00BF00BF6C
:100DD0009A9999999999B93F000000000000244020
:100DE0009A9999999999B9BF0000000000000000F4
:100DF000000000000000144000000000000014C0CB
:100E000044F20041C4F200010A6812F0900FFBD0D6
:100E1000486000BF08684006FCD5704703B40198DD
:100E20004100009850EAC12018BF04204A0D18BFA5
:100E300040F0010040F2FF72B2EB515F08BF40F09A
:100E40000200012808BF052002B070470000000022
:100E50002DE9F04D2DED040B2DED0E8B94B0DDE959
:100E60002350259CDDF888A025F0004624F000489A
:100E7000BAF1000F14BF0121002101EB4502FC492A
:100E800053184A1093422AD3002814BF0123002389
:100E900003EB44030B44F7498B4220D358EA00018B
:100EA0009FEDF5AB76D0DFF8D8B35D4503D1BAF14D
:100EB000000F05D188E0BAF1000F08BF002100D073
:100EC000012101EB450111F5001F08D8002814BFCE
:100ED0000121002101EB440111F5001F0BD99DED0B
:100EE000241B9DED220B14B0BDEC0E8B04B0BDE8AD
:100EF000F04D00F071BE0027002DBCBFE1498845D0
:100F000021DAE1498845A8BF02271CDAC3451ADC6B
:100F1000DE4901EB2851142908DDC1F1340220FA21
:100F200002F101FA02F282420DD108E058B9C1F192
:100F3000140228FA02F101FA02F2424503D101F04B
:100F40000101C1F1020756EA0A0124D1002C22DA7C
:100F5000002D18BF022F01D0012F0AD00220FFF769
:100F6000B8F914B0BDEC0E8B04B0BDE8F04D00F044
:100F70001BBE0220FFF7ADF900F016FE51EC100B7E
:100F800000F0A9FE41EC100B14B0BDEC0E8B04B0C8
:100F9000BDE8F08D18E09FEDBE9B9FEDBF8B002854
:100FA00071D1B848804522D105F1804010F58010FC
:100FB00008BFBAF1000F07D0B3450ADC002CA8BF68
:100FC0009DED240BE0DA0DE0B0EE4A0AF0EE6A0A7D
:100FD000DAE7002C06DA9DED240B51EC100B00F043
:100FE0007AFE6FE0AE48784490ED000BCCE7D84530
:100FF0004DD1002C48DA2EB186423AD1BAF1000F19
:1010000042D126E0BAF1000F13D00220FFF761F9B8
:1010100000F0FEFD8DED020B9DED220B8DED000B22
:1010200010EE900A039961F31E0003909DED020BF0
:10103000AAE78DED029B9DED220B19EE901A10EEA2
:10104000900A8DED000B61F31E0003909DED020BE5
:101050009AE78DED028B9DED220B18EE901A10EEA3
:10106000900A8DED000B61F31E0003909DED020BC5
:101070008AE709DA9DED220B51EC1A0B53EC102B89
:1010800000F0F2FE1EE020E09DED220B7CE78642A0
:101090001BDAB4F1804F0DD0A4F10050B0F1FF5035
:1010A00013D1002D11DB9DED220B51EC100B00F044
:1010B000DBFD07E09DED220B53EC102B51EC100BE8
:1010C00000F0CABC41EC100B5EE79DED220B51EC29
:1010D000100B00F0BDFDBAF1000FCDE90A0142D1BD
:1010E0009FED710B46B3A6F1E040B0F17F600CD0EC
:1010F0005E4538D1002D00DAA7B3022F0CBF0120C6
:101100004FF0FF3001F075F8DCE7002D01DD002C19
:101110000DDA002D01DD002C1FDB002D16DA002C6E
:1011200014DB012F08BF9FED620B3FF42DAFB0EE33
:10113000490AF0EE690A27E7022F18BF002D0CD0EC
:10114000012F0AD1002DFFF61FAF06E0002DB8BF1A
:10115000002C08DA012F3FF417AFB0EE480AF0EE8A
:10116000680A11E71BE0012000EBE57050EA070177
:1011700015D0791EB0EE4A8AF0EE6A8A084308BF9D
:101180009FED4D8B4E480025804570DD4D494E4802
:10119000884514DDB0420DDB002C19DB2FE0012067
:1011A000FFF797F814B0BDEC0E8B04B0BDE8F04D1E
:1011B00000F01EBDB34502DC002C09DC1FE08642B6
:1011C00002DA002C1BDA03E05E452BDD002C16DD75
:1011D0000220FFF77EF800F01BFD8DED020B53ECB3
:1011E000192B51EC180B01F093F8CDE9000103998C
:1011F000019861F31E0003909DED020BC4E60220EE
:10120000FFF767F800F014FD10EE901A18EE900A40
:101210008DED020B8DED008B61F31E0003909DEDB3
:10122000020BB1E69DED0A0B53EC1A2B51EC100B9F
:1012300001F07AFA9FED260BCDE90A0153EC102B51
:101240009DED0A0B51EC100B01F062F89FED221B93
:1012500053EC112B01F090F99DED0A1B53EC112B6F
:1012600001F056F89FED1E1B53EC112B3CE08CE077
:10127000FFFF1F00FFFF0F00000000000000F03F15
:101280000000F03F0000F07F0000404301FCFFFF42
:10129000000000000000F07F0000000000000000DF
:1012A000061B00000000000000000000000000809D
:1012B000000000000000F0FF000000000000F0BF90
:1012C0000000E0410000F043FFFFEF3F000000009E
:1012D000000000000000D03F555555555555D53FED
:1012E000000000000000E03F01F046F99DED0A0B10
:1012F00041EC190B53EC102B51EC100B01F008F8DA
:1013000053EC192B01F004F89DED0A0B41EC1B0B7B
:1013100053EC102B9FEDFE0B51EC100B00F0F8FF7F
:1013200041EC190B9FEDFC0B51EC1B0B53EC102BFC
:1013300000F0EEFF41EC1B0B9FEDF90B53EC102B73
:101340009DED0A0B51EC100B00F0E2FF53EC1B2B50
:1013500001F0EAF941EC1B0B51EC190B53EC1B2B80
:1013600000F0C6FC0490CDE904519DED040B53EC54
:10137000192B51EC100B01F0D7F953EC1B2B01F09A
:10138000FBF841EC100B00F0A9B90020B6F5801F66
:101390000EDA9FEDE50B53EC102B9DED0A0B51EC93
:1013A000100B00F0B5FFCDE90A016FF034000E46D6
:1013B00000EB2650A0F2FF37C6F31300DC4940F0E3
:1013C0007F6646F040568842D8BF002408DDD949E0
:1013D0008142C8BF012403DC0024A6F580167F1CCF
:1013E000D548784400EBC4080B9698ED000B53ECFD
:1013F000102B9DED0A0B51EC100B01F095F998EDB7
:10140000000B41EC1B0B53EC102B9DED0A0B51EC28
:10141000100B00F06DFC41EC100B51EC1A0B53EC6F
:10142000102B00F021FD41EC1C0B51EC1B0B53EC7D
:101430001C2B00F06DFF41EC190BC0488DED0E9B8D
:1014400078440E9590ED000B4FF0005040EA660096
:1014500000EB84408DED120B00F50020139098ED09
:10146000000B53EC102B9DED120B51EC100B01F007
:101470005BF99DED0A1B53EC112B01F07DF841EC5B
:10148000100B53EC102B9DED0E0B51EC100B00F0DC
:101490003FFF9DED120B41EC1D0B53EC102B9DED0E
:1014A0000E0B51EC100B00F033FF53EC1B2B01F033
:1014B00063F853EC1D2B01F037F953EC1C2B00F0B3
:1014C00027FF41EC1C0B53EC192B51EC190B00F0CE
:1014D0001FFF41EC1B0B9A480621B0EE4B0AF0EEC1
:1014E0006B0A784400F0E4FAB0EE401AF0EE601AAD
:1014F000B0EE41DAF0EE61DA53EC1B2B51EC1B0B32
:1015000000F006FF53EC1D2B00F002FF9DED0E0BCB
:1015100041EC1B0B53EC192B51EC100B00F0E8FBCA
:1015200053EC1C2B00F0F4FE53EC1B2B00F0E0FB03
:101530009DED0E0B41EC1B0B53EC102B51EC100BE3
:1015400000F0E6FE41EC1D0B53EC1D2B9FED7EEBF6
:1015500051EC1E0B00F0CCFB53EC1B2B00F0C8FB36
:101560001290CDE912519DED120B53EC1E2B51EC54
:10157000100B01F0D9F853EC1D2B01F0D5F853EC0A
:101580001B2B00F0F9FF9DED120B41EC1D0B53ECF2
:10159000102B9DED0E0B51EC100B00F0B9FE41EC41
:1015A0001B0B53EC192B51EC1D0B00F0B1FE9DED04
:1015B000120B41EC190B53EC102B51EC1C0B00F0EF
:1015C000A7FE53EC192B00F093FB41EC190B51ECE7
:1015D0001B0B53EC192B00F08BFB0490CDE904514D
:1015E0009DED040B53EC1B2B51EC100B01F09CF800
:1015F00053EC192B00F0C0FF9DED040B41EC190BCF
:1016000053EC102B9FED520B51EC100B00F080FEB1
:1016100041EC1B0B9FED500B51EC190B53EC102BB5
:1016200000F076FE9DED040B41EC190B53EC102BF2
:101630009FED4B0B51EC100B00F06AFE53EC192B95
:1016400000F056FB41EC100B4748784400EBC40017
:1016500090ED001B51EC100B53EC112B00F048FBEC
:1016600041EC190B384600F0C4FDCDE90A0153ECFA
:10167000192B51EC1B0B00F03BFB41EC100B3B48D2
:10168000784400EBC40451EC100B94ED001B53ECB8
:10169000112B00F02DFB9DED0A1B53EC112B00F0DC
:1016A00027FB0490CDE904519DED0A0B53EC102B60
:1016B0009DED040B51EC100B01F036F894ED001B7E
:1016C00053EC112B01F030F853EC1B2B01F02CF8EC
:1016D00053EC192B00F050FF41EC100B9DED241B37
:1016E00053EC102B8DED001B00959DED240B51EC60
:1016F000100B00F00DFE9DED000B41EC190B53ECAF
:10170000102B9DED240B51EC100B01F00DF82FE088
:10171000000000604715F73FFE822B654715F73F35
:1017200044DF5DF80BAE543E000000000000404373
:101730008E9803007AB60B0082160000AC160000EB
:10174000B21500000000000000000000000008408A
:10175000000000E009C7EE3FFD033ADC09C7EE3F99
:10176000F5015B14E02F3EBE3A140000F4130000B4
:101770009DED041B53EC112B00F0CAFD53EC192B0B
:1017800000F0B6FA9DED040B41EC190B53EC102B55
:101790009DED000B51EC100B00F0BAFDCDE90401FA
:1017A0009DED040B51EC190B53EC102B00F0A0FA3B
:1017B000CDE902010C46AA498C422FDB611A08438D
:1017C00018D19DED040B53EC102B9DED020B51EC49
:1017D000100B00F0A9FF41EC1B0B9FEDA30B51EC8C
:1017E000190B53EC102B00F083FA53EC1B2B00F079
:1017F0008DFE2DD20220FEF76CFD00F009FA10EEEE
:10180000901A18EE900A8DED020B8DED008B61F3AE
:101810001E0003909DED020BFFF7B6BB944A24F027
:101820000041914214D39349214408437FF4E7AC2B
:101830009DED040B53EC102B9DED020B51EC100BA6
:1018400000F072FF53EC192B00F060FE7FF6D7AC6E
:1018500024F000408849894A002601EB2051824249
:101860002BDA481C4FF4801121FA00F02044844AFE
:10187000C0F30A517A44A1F2FF3192ED000B814A84
:101880008DED0A0BCA4020EA0202C0F3130040F4B7
:101890008010C1F1140120FA01F60B92002CB8BFA0
:1018A00076429DED0A0B53EC102B9DED040B51EC91
:1018B000100B00F039FFCDE904019DED040B51EC54
:1018C000190B53EC102B00F013FA9FED6F0B0A90DD
:1018D000CDE90A5153EC102B9DED0A0B51EC100B86
:1018E00000F016FD41EC1B0B9FED690B53EC102B28
:1018F0009DED0A0B51EC100B00F00AFD9DED040B61
:1019000041EC1C0B53EC102B9DED0A0B51EC100B12
:1019100000F00AFF53EC192B00F02EFE9FED5E1B2A
:1019200053EC112B00F0F4FC53EC1C2B00F0E0F90D
:1019300041EC190B51EC1B0B53EC192B00F0D8F9AF
:10194000CDE902019DED020B53EC1B2B51EC100B6A
:1019500000F0EAFE53EC192B00F00EFE9DED020B99
:1019600041EC190B53EC102B51EC100B00F0D0FC98
:10197000CDE90A014A489DED0A0B0521784400F0A3
:1019800097F89DED0A1B51EC100B53EC112B00F056
:10199000BFFC9DED021B53EC112B00F0EDFDCDE9DA
:1019A00004019DED020B53EC192B51EC100B00F0D0
:1019B000AFFC53EC192B00F09BF99FED3B0B41EC76
:1019C000190B53EC102B9DED040B51EC100B00F098
:1019D000ABFE9DED040B41EC1B0B53EC102B9DED6E
:1019E000020B51EC100B00F093FC53EC1B2B00F09E
:1019F0003BFA53EC192B00F097FE9DED021B53ECC4
:101A0000112B00F091FE53EC1A2B00F0B5FDCDE93F
:101A1000020101EB065001150029C8BF039015DC37
:101A20009DED020B324651EC100B00F0D4FFFFF796
:101A3000F5F9042808BF00F0FBF832469DED020BD3
:101A400051EC100B00F0C7FFCDE902019DED020B38
:101A500051EC180B53EC102B00F05AFCFFF732BB83
:101A60000000904000000000FE822B654715973C67
:101A700000CC904000346F3F01FCFFFF0000E03FCE
:101A800078120000FFFF0F0000000000432EE63F29
:101A9000396CA80C615C20BEEF39FAFE422EE63F9D
:101AA000481100000000000000000000000000409D
:101AB00070B504462DED028B4D1E00EBC500B0EE57
:101AC000408AF0EE608A90ED000B35F0060017D0EA
:101AD00053EC182B51EC100B00F01AFC41EC100BDE
:101AE0006D1E04EBC50090ED001B51EC100B53EC88
:101AF000112B00F0FDF841EC100B35F00600E7D19A
:101B0000022D36D0042D1CD0062D1CBFBDEC028B3F
:101B100070BD53EC182B51EC100B00F0F9FB94ED59
:101B20000A1B53EC112B00F0E3F853EC182B00F0D8
:101B3000EFFB94ED081B53EC112B00F0D9F841ECAE
:101B4000100B53EC182B51EC100B00F0E1FB94ED53
:101B5000061B53EC112B00F0CBF853EC182B00F0C4
:101B6000D7FB94ED040B53EC102B00F0C1F841ECC3
:101B7000100B53EC182B51EC100B00F0C9FB94ED3B
:101B8000021B53EC112B00F0B3F853EC182B00F0B0
:101B9000BFFB94ED001B53EC112B00F0A9F8BDEC3A
:101BA000028B41EC100B70BD9FED070B10B553EC91
:101BB000102B9FED070B51EC100B00F055F941EC89
:101BC000100B10BD0000000000000000000000002D
:101BD000000000000000F03F10B553EC112B51EC59
:101BE000100B00F085F841EC100B10BD0000000058
:101BF0009FED050B10B553EC102B51EC100B00F0C2
:101C000033F941EC100B10BD000000000000000093
:101C10009FED050B10B553EC102B51EC100B00F0A1
:101C200077FB41EC100B10BD0000000000000070BD
:101C30009FED050B10B553EC102B51EC100B00F081
:101C400067FB41EC100B10BD00000000000000100D
:101C500082B0CDE9000121F0004001909DED000B24
:101C600002B051EC100B704700B52DED048B83B022
:101C700041EC190B00F08CFC41EC180B18EE100A2B
:101C800018EE901A8DED008B002818BF0120084334
:101C900020F00040C0F17F6000F1E040C00F14D0A0
:101CA00019EE101A19EE900A8DED009B002918BF4D
:101CB0000121084320F00040C0F17F6000F1E040C6
:101CC000C00F04BF0120FEF704FB51EC180B03B05A
:101CD000BDEC048B00BD81F00041704780F00040F6
:101CE000704721F00041704720F00040704700002D
:101CF00010B591EA030F48BF83F0004300F11C8543
:101D0000841A71EB030C05D2121943EB0C03001B70
:101D100061EB0C014FEA1154A4EB135CDFF81CE1FA
:101D20001EEA430F18BF9EEA445F00F0748021EA68
:101D3000045123EA0E0343F48013DCF1200E32D366
:101D400022FA0CFE10EB0E0023FA0CFE41EB0E0102
:101D5000CCF1200E03FA0EFE10EB0E00CCF1200E9B
:101D600051F10001B1F5801F32D201EB045112FA9A
:101D70000EF2BDE8104058BF7047401C38BF5FEA04
:101D8000420218BF7047002814BF20F0010041F143
:101D900000014FEA410313F5001F38BF7047A1F15E
:101DA000C04100F0ADBB012A43EB0302ACF1200CB3
:101DB000DCF11F0E32BF4FF0000E23FA0CF310EBD4
:101DC000030041EB0451B4EB115FD0D0A1EB0451FF
:101DD00001F58011490801EB04515FEA30000ED390
:101DE00050F1000038BF12FA0EFE08D1BDE81040D5
:101DF000C9E7401C38BF5FEA4202CAD1C3E7BDE869
:101E000010404FEA410313F5001F38BF7047A1F19E
:101E1000C04100F075BB9EEA445F08D011EA5E0F36
:101E2000BDE8104004BF01F0004100207047BDE84C
:101E3000104070B500F016FB64FBBE3E0000E0FFF2
:101E400002494FF0000000F094BD00BF0000F87F91
:101E5000491058BFC1F140415B1058BFC3F1404326
:101E60008B42EFF3008070472DE9C04130B4DFF8BA
:101E7000A4C23CEA111418BF3CEA131400F0ED8030
:101E80001CEA111481EA030544EAD57418BF1CEA60
:101E9000131500F0C880A4EB050404F17F7404F569
:101EA00000344FF0004545EAC12145EAC32341EA29
:101EB000505143EA52534FEAC0204FEAC22299429E
:101EC00008BF904200F09D804FEA13650FF2441660
:101ED000765D4FEA134506FB05F7C7F1807706FBF1
:101EE00007F74FEAD737A7FB03687642A7FB06CE72
:101EF000C8F5803838BFA8F1010807FB08E6A6FB43
:101F0000028C4FF0000EE6FB03CEDCF1000CCEF1AC
:101F1000004E38BFAEF1010EA6FB0C584FF0000783
:101F2000E6FB0E87A1FB08C6A0FB07CE16EB0E064C
:101F30004FF0000545F10005E1FB076515F1E04EA6
:101F40007EBFA4F580345FEA46066D4116F1800736
:101F500045F100054FEA172747EA05674FEA1525BF
:101F60004FEA0666A6F1DE46B6F1805F20D9384614
:101F700005EBC47124F0010C01EB0C11BCF1FE6FF8
:101F800002D8F0BCBDE8008124425CBF01F5801E90
:101F90009EEAC47F02D4F0BCBDE80081244200F177
:101FA0003980A1F1C041F0BCBDE8004100F0A8BA01
:101FB0004FEAD02040EA41504FEAD1214FEAD222E5
:101FC00042EA43524FEAD323A7FB028607FB03668C
:101FD00005FB02661EEA0E0F58BFA6EB0056B6EBD5
:101FE00000564FEA520E4EEAC37E18EB0E0E56EB29
:101FF000530EBCD518EB02085E417F1C55F100055D
:10200000B5E74FF480154FF000074FF000064FF092
:102010000008ACE701F1C04101F000414FF00000C1
:10202000F0BCBDE800810CEA131511EA0C1F00D0CA
:102030000CE013EA0C1F00F026804FF0000081EA4C
:10204000030101F00041F0BCBDE80081F0BCBDE837
:10205000004181EA030100F053BAF0BCBDE8004141
:1020600070B500F0FFF900BF097EFC3E00F007B834
:102070004FF0000081EA030101F00041704781EA5E
:10208000030100F03DBAF0BCBDE8004122494FF029
:1020900000007047FFFDFBF9F7F5F4F2F0EEEDEB11
:1020A000E9E8E6E4E3E1E0DEDDDBDAD8D7D5D4D356
:1020B000D1D0CFCDCCCBCAC8C7C6C5C4C2C1C0BFA2
:1020C000BEBDBCBBBAB9B8B7B6B5B4B3B2B1B0AFA8
:1020D000AEADACABAAA9A8A8A7A6A5A4A3A3A2A18C
:1020E000A09F9F9E9D9C9C9B9A9999989797969547
:1020F00095949393929191908F8F8E8E8D8C8C8BE3
:102100008B8A89898888878786858584848383826A
:10211000828181800000FF070000F87F51EA030CF4
:1021200017D41CF5801F58BFBCF5801F00F1068036
:10213000994218BF704708BF9042704707D711F502
:10214000801F58BF13F5801F19D4994270478942E8
:1021500070471CF5801F08D5BCF5801FF7D58B4252
:1021600018BF704708BF824270474FF4001C1CEB39
:10217000410F38BF1CEB430F01D28B42704770B543
:1021800000F070F9922449004FF000514FF0805355
:10219000FFF75EBE4FEA41034FEA5353A3F5806356
:1021A000D3F11E03C8BFD3F1210C0CDD4FF0004268
:1021B00042EAC12242EA505232FA03FC8CEAE17C44
:1021C000ACEBE1707047102BC4BF0020704703F5E3
:1021D000787CBCF1FF3F04D06FF0004282EA21001E
:1021E000704770B500F03EF9499224800020704796
:1021F000F2E710F0004248BF4042B0FA80F310FA14
:1022000003F10AD0C3F11D0303F5806302EB03520F
:102210004FEA415002EBD12170474FF00000704768
:1022200051EA030C17D41CF5801F58BFBCF5801F62
:1022300000F10680994218BF704708BF904270476E
:1022400007D711F5801F58BF13F5801F19D4994285
:102250007047894270471CF5801F08D5BCF5801F68
:10226000F7D58B4218BF704708BF824270474FF4C2
:10227000001C1CEB410F38BF1CEB430F01D28B42FB
:10228000704770B500F0EEF8922449004FF080518D
:102290004FF00053FFF7DCBD51EA030C17D41CF5D7
:1022A000801F58BFBCF5801F00F10680994218BFFF
:1022B000704708BF9042704707D711F5801F58BF7D
:1022C00013F5801F19D499427047894270471CF555
:1022D000801F08D5BCF5801FF7D58B4218BF70470B
:1022E00008BF824270474FF4001C1CEB410F38BFFF
:1022F0001CEB430F01D28B42704770B500F0B2F86F
:10230000922449004FF000514FF08053FFF7A0BDD9
:1023100070B5DFF848C11CEA111E1EBF1CEA131578
:102320009EEA0C0F95EA0C0F00F06F8081EA03041F
:102330004EEAD47EAE4421EA4C1123EA4C1341F418
:10234000801143F48013AEF17F7EA1FB024CA0FB11
:102350000365361955EB0C05A1FB034C4CF100034A
:10236000A0FB021C16EB0C06654153F10003094269
:1023700018BF46F0010613F4007F0BD14FEA03317A
:102380004FEA053041EA155140EA165034036FF028
:1023900003020AE04FEAC3214FEAC52041EA555142
:1023A00040EA5650F4026FF0020202EB2E4201EBBB
:1023B000025585EACE710AD05FEA440C18BF24F0BA
:1023C000004450F1000041F1000120EAD47040F2D5
:1023D000FE7C624500D270BDA84214BF4FF080441D
:1023E0004FF04044002E08BF0024BEF1806FA8BF0C
:1023F000A1F1C041BDE8704080F2828001F1C0418E
:1024000001F000414FF0000070470CEA13159EEAFE
:102410000C0F18BF95EA0C0F06D081EA030E4FF09F
:1024200000000EF0004170BD00F01CF88900013E74
:1024300000F007B800F009B84FEA430C5FEA5C5CB3
:1024400008D081EA030100F05BB84FEA410C5FEA73
:102450005C5CF6D102494FF0000070470000FF07B6
:102460000000F87F0EF1020E2EF0030E5EF8046BF2
:10247000364205D4012A43EB030515F5001F12D897
:10248000012841EB010C1CF5001F0CD80ED14FEABE
:10249000D17C0CEB4C0C0CF1020C15F5001F08BFA5
:1024A0004CEBD37C04E04FF0080C01E04FEAD37C06
:1024B0000CEB4C0526FA05F606F00706B6F1040CFF
:1024C00006D20EEB860CBDE870404CF0010C604764
:1024D000DFE80CF0090B02024FF00041A1F50021EA
:1024E0004FF0000070BD19461046012851EB010461
:1024F00018BFD4F5001484BF002001F0004170BD66
:102500000808A0F500114FEA3101704753EA010CA9
:1025100017D41CF5801F58BFBCF5801F00F1068042
:102520008B4218BF704708BF8242704707D713F528
:10253000801F58BF11F5801F19D48B4270479B42F2
:1025400070471CF5801F08D5BCF5801FF7D5994250
:1025500018BF704708BF904270474FF4001C1CEB37
:10256000430F38BF1CEB410F01D2994270470FB4A3
:102570000CBC03BCFFF7C1BE10B591EA030F81F09C
:1025800000413FF5BDAB83F0004300F0D5B800003B
:102590002DE9F04101F5801CBCF5001FC0F2A980B7
:1025A0004FEA115C21EA0C5141F480110CF1FD0C51
:1025B0005FEA5C0C0CF5C07C01D340004941890204
:1025C00041EA905187022EA48E0EA45D0A0C04FBF2
:1025D00004F602FB06F6C6F14046A4FB0662F60DC1
:1025E00046EA422606FB06F4A4FB01235242C3F14D
:1025F000404338BF5B1EA6FB02420024E6FB0324D7
:10260000D20B42EA4446A6FB0623A1FB02E2A3FB4F
:1026100007E4E3FB61426442C2F1404E38BFAEF1D1
:10262000010EA6FB04234FF00002E6FB0E32A2FBD4
:1026300003463400E2FB6264A1FB06E6A4FB07E864
:10264000E4FB61687642C8F1405838BFA8F1010840
:10265000A2FB06E4A3FB08E5E2FB6854A1FB05E648
:10266000A7FB04E8E1FB648618F1200556F100069B
:10267000A80940EA8660B109A8F11B0808F03F08E4
:10268000B8F10A0F1CD901EB0C51BDE8F08100BF75
:10269000FCF5EEE8E2DDD8D3CFCBC7C3C0BDB9B6F9
:1026A000B4B1AEACA9A7A5A3A19F9D9B9A989695FE
:1026B0009392908F8D8C8B89888786858483828185
:1026C000A0FB006800FB01F208EB4208B8EB87288A
:1026D00007D5341858EB0104D5D5401C51F1000141
:1026E000D1E7341A78EB0104CDD4401E71F100011A
:1026F000C9E75FEA4C0C5FEA9C5C0DD105D301F0A1
:1027000000414FF00000BDE8F081BDE8F04170B538
:10271000FFF7A8FE6DDBFFBEBDE8F04101494FF0B9
:10272000000070470000F87F10B591EA030F48BF22
:1027300083F000433FF5E4AA841A71EB030C07D23F
:102740008CF0004C121943EB0C03001B61EB0C01E5
:102750004FEA1154A4EB135CDFF8A4E11EEA430F27
:1027600018BF9EEA445F00F0B48021EA045123EAD6
:102770006E035242C3EB6E0338BF5B1EDCF1200ECA
:1027800025D322FA0CFE10EB0E0043FA0CFE41EBAF
:102790000E01CCF1200E03FA0EFE10EB0E00CCF170
:1027A000200E51F1000129D401EB045112FA0EF26E
:1027B000BDE8104058BF7047401C1CBFB2F1004F2D
:1027C000704700280CBF491C20F00100704712EB35
:1027D000020E43EB030218BF4FF0010E4EEA420215
:1027E000ACF1200CDCF11E0E56D943FA0CFE10EBB6
:1027F0000E00CCF11E0E51F1FF31D5D50EF1010EB8
:1028000012FA0EFE404141EB010101EB445C5FEA2C
:102810005C5C10D901EB045110EBDE7038BFBEF1E7
:10282000004FBDE8104018BF704700280CBF491C7E
:1028300020F00100704734D24FEAD42C24F4006415
:1028400011F500111BD0B1FA81F20B3AA41AA41EA3
:10285000D2F12003914030FA03F31943904001EB89
:10286000CC7101EB0451002CBDE81040A8BF7047AB
:1028700001F1C04101F000414FF000007047B0FA93
:1028800080F310FA03F102D1BDE810407047E41A5A
:10289000173C4805C90AE2E701EB0451BDE81040C6
:1028A000704749104FEA300001EB0451BDE8104079
:1028B00002E04FF0000170474A0008BF0042F8D024
:1028C000B2F5001F28BF704701F000414FF0000033
:1028D00070479EEA445F07D011EA5E0FBDE81040E2
:1028E00004BF002100207047BDE8104070B5FFF71D
:1028F000B9FD00BF40DFF63E104683F0004170474F
:102900000000E0FF10B5FFF709FC0CBF012000201C
:1029100010BD10B5FFF702FC14BF0120002010BD50
:1029200010B5FFF77DFC8CBF0120002010BD10B555
:10293000FFF776FC2CBF0120002010BD10B5FFF77B
:10294000ABFC94BF0120002010BD10B5FFF7A4FC24
:1029500034BF0120002010BDF1EE100A4FF6FF71C8
:10296000C0F2C03120EA010040F04070E1EE100AF0
:1029700070470CF00F03092B08BF082000F05980A6
:102980000A2B0BD0082B18BF704708BF1CF0400F54
:102990000AD04FF000004FF0000170471CF0400FCC
:1029A00018BF4FF0004070471CF0100F08D000F027
:1029B0007F4220F0704342EAD3014FEA43707047F0
:1029C00000F0604021F07F4242EA000201F07F40C7
:1029D00040EA727070474FF0FF0C4CF4E06C1CEA58
:1029E00011531CBF9CEA030C9445C2BFDA4201EBB1
:1029F00002517047002B0DD0BCF1000F0FD001F039
:102A00000041002AA4BF41F0E04141F07F614FF056
:102A10000000704701F000414FF00000704750EA9D
:102A200001334FF09B0C18BF4CF0806C7FF408AA68
:102A300070471CF4801F11D01CF4E02F03D06FEA04
:102A4000CC31490070474FF04050EFF3008222F044
:102A5000704242EA000282F3008870474FF00000A3
:102A60007047000000000000000000000000F03F80
:102A7000000000000000F83F00000000000000001F
:102A80000000004003B8E23F00000000000000002A
:102A900006D0CF43EBFD4C3E033333333333E33FB8
:102AA000FFAB6FDBB66DDB3F4D268F515555D53FE4
:102AB00001411DA96074D13F65DBC9934A86CD3FB2
:102AC000EF4E454A287ECA3F3E5555555555C53FA0
:102AD00093BDBE166CC166BF2CDE25AF6A56113F92
:102AE000F16BD2C541BDBBBED0A4BE726937663E94
:102AF0000000000000000000182B0008000000206B
:102B000018000000D0010008302B00081800002039
:102B1000E8060000EC010008000000000000F03FA3
:102B2000000000000000F03F0000000000005940DD
:040000050800019559
:00000001FF
