:020000040800F2
:1000000000060020950100089D0100089F010008DE
:10001000A1010008A3010008A501000800000000DC
:10002000000000000000000000000000A701000820
:10003000A901000800000000AB010008AD010008A4
:10004000AF010008AF010008AF010008AF010008D0
:10005000AF010008AF010008AF010008AF010008C0
:10006000AF010008AF010008AF010008AF010008B0
:10007000AF010008AF010008AF010008AF010008A0
:10008000AF010008AF010008AF0100080000000048
:10009000000000000000000000000000AF010008A8
:1000A000AF010008AF010008AF010008AF01000870
:1000B000AF010008AF010008AF010008AF01000860
:1000C000AF010008AF010008AF010008AF01000850
:1000D000AF010008AF010008AF01000800000000F8
:1000E000AF010008AF010008AF01000800000000E8
:1000F000000000000000000000000000AF01000848
:1001000000000000AF010008AF010008AF010008C7
:1001100000000000000000000000000000000000DF
:10012000AF010008AF010008AF010008AF010008EF
:10013000AF01000800000000000000000000000007
:10014000000000000000000000000000AF010008F7
:10015000AF010008AF010008AF010008AF010008BF
:10016000AF010008AF01000800000000000000001F
:10017000000000000000000000000000000000007F
:1001800000000000AF0100080000000000000000B7
:10019000AF0100080948804709480047FEE7FEE72D
:1001A000FEE7FEE7FEE7FEE7FEE7FEE7FEE7FEE727
:1001B00004480549054A064B70470000DD01000868
:1001C000FD010008000000200006002000020020C1
:1001D000000200207047704770470000B8484FF099
:1001E00007010160B7484FF055310160B6484FF044
:1001F000AA410160B5484FF0553101604FF000064B
:10020000B3484FF6FF710160B2490A684FF4704776
:10021000DFF8C4C2CCF8007002F00105012D00D156
:10022000ECE7AB484FF0000101604FF00007DFF84A
:10023000A8C2CCF80070A9494EF6FF720A60A54921
:1002400008684FF6FF6141EA00028A423DD04FF64E
:10025000FF5141EA00028A4248D04FF6FF3141EA9D
:1002600000028A4253D09D494DF6FF720A609949B7
:1002700008684FF6FF6141EA00028A4257D04FF604
:10028000FF5141EA00028A4261D04FF6FF3141EA54
:1002900000028A426BD091494BF6FF720A608D4989
:1002A00008684FF6FF6141EA00028A426FD04FF6BC
:1002B000FF5141EA00028A4279D04FF6FF3141EA0C
:1002C00000028A4200F08380B5E781494FF48052F2
:1002D0001446012E00F094800A604FF40045DFF8C8
:1002E000F8C1CCF800504FF0010680E078494FF497
:1002F00000521446012E00F083800A604FF400453E
:10030000DFF8D4C1CCF800504FF001066FE070491F
:100310004FF440521446012E72D00A604FF400454B
:10032000DFF8B4C1CCF800504FF001065FE0684937
:100330004FF480421446012E62D00A604FF400450B
:10034000DFF894C1CCF800504FF001064FE060494F
:100350004FF4A0421446012E52D00A604FF40045DB
:10036000DFF874C1CCF800504FF001063FE0584967
:100370004FF4C0421446012E42D00A604FF40045AB
:10038000DFF854C1CCF800504FF001062FE050497F
:100390004FF4E0421446012E32D00A604FF400457B
:1003A000DFF834C1CCF800504FF001061FE0484997
:1003B0004FF400421446012E22D00A604FF400454B
:1003C000DFF814C14FF00106CCF800500FE04049AF
:1003D0004FF410421446012E12D00A604FF400452B
:1003E000DFF8F4C0CCF800504FF00106FFE73C4FB7
:1003F000A7F10107002FFBD1012E08BFA0461AE785
:10040000A1464FEA141444EA080431490C60324909
:100410000D60C14502DC29DB3FF4F0AEA9EB080317
:1004200044462B490C604FF0040A4FF4805BD844DB
:1004300028FA0AFC44EA0C0425490C6026494FEAD4
:1004400055050D60264FA7F10107002FFBD10AF1DA
:10045000040ABAF1100F02BF4FF0000A00244FF453
:100460008035A3EB0B03002BE1DC27E0A8EB0903AD
:10047000444617490C604FF0040A4FF4805BA8EB28
:100480000B0828FA0AFC44EA0C0411490C601249D2
:100490004FEA55050D60124FA7F10107002FFBD160
:1004A0000AF1040ABAF1100F02BF4FF0000A00244B
:1004B0004FF48035A3EB0B03002BE0DCFEE70000DC
:1004C00030380240000002400004024000080240B0
:1004D00014000240100402401408024014040240B8
:0404E000FFFF3F00DB
:0400000500000000F7
:00000001FF
